:04000000D9EF07F03D
:100E00000000D4EC07F0520EC4EC07F0B60EC4ECB0
:100E100007F0CAEC07F0530EC4EC07F0010E50ECDB
:100E200007F0076E07500A6E0B6A000E50EC07F0D1
:100E3000076E0750096E086A0A5008100A6E0B50B8
:100E400009100B6ECFEC07F00AC005F00BC006F0DE
:100E5000120071EC07F0849E7C9E01EC07F005C047
:100E60000EF006C00FF00F5009E1650E0E5CD8A021
:100E70003CEF07F03EEF07F040EF07F07C8E7C9EE2
:100E8000520E0D6E2B0E0C6E000EE82EFED70C2EA1
:100E9000FCD70D2EFAD700D02BEF07F000EF00F0B3
:100EA000036EA0EC07F00E01DA87A0EC07F0D5CEB8
:100EB00004F0A0EC07F00350D8B461EF07F065EF41
:100EC00007F0026A022A66EF07F0026A023A024657
:100ED0000E01DA510218DF0B0218DA6FDA890450BA
:100EE00012008BEC07F0010E036E000EB4EC07F05D
:100EF0003F0E056E550EE82EFED7052EFCD70000DE
:100F0000030E036E000EB4EC07F0D50E036E010E57
:100F1000B4EC07F012000E01D951F00B0809D96F9B
:100F2000D98B9F0ED66F848A848CA79BA79D1D0E9C
:100F30001D6F1E0E1C6F1C0E6F6F1B0E706F12004C
:100F40000E01D8B5A6EF07F0A8EF07F0A0EF07F065
:100F5000DACE01F01F0E0116D8A4B1EF07F0B3EFFF
:100F600007F0A0EF07F01200046ED4EC07F0520E69
:100F7000C4EC07F004508009C4EC07F00350C4EC43
:100F800007F0CFEC07F01200026EA0EC07F002C0F1
:100F9000D5FE1200A0EC07F00E01DA831200A0ECDF
:100FA00007F00E01DA851200A0EC07F00E01DA81DD
:080FB0001200000129EF07F017
:020000040030CA
:02000000AAFF55
:020004009FFF5C
:00000001FF
