:0400000007EF00F016
:0A000800168216921100C7EF08F0EF
:100E0000000064EC08F0B7EC08F0849E7C9EDBECFC
:100E100008F0520E0D6E2B0E0C6E000EE82EFED753
:100E20000C2EFCD70D2EFAD700D0A3EC07F005C08E
:100E30000EF006C00FF0CBEC07F005C010F006C0B6
:100E400011F01BEC08F005C012F006C013F0F3EC33
:100E500007F005C014F006C015F0E0EC08F00F50E4
:100E600009E1650E0E5CD8A038EF07F03AEF07F005
:100E700048EF07F07C8E520E0D6E2B0E0C6E000E9E
:100E8000E82EFED70C2EFCD70D2EFAD700D07C9E74
:100E9000115009E1650E105CD8A051EF07F053EF37
:100EA00007F061EF07F07C8E520E0D6E2B0E0C6E6C
:100EB000000EE82EFED70C2EFCD70D2EFAD700D050
:100EC0007C9E135009E1650E125CD8A06AEF07F012
:100ED0006CEF07F07AEF07F07C8E520E0D6E2B0E42
:100EE0000C6E000EE82EFED70C2EFCD70D2EFAD776
:100EF00000D07C9E155009E1650E145CD8A083EFEC
:100F000007F085EF07F093EF07F07C8E520E0D6E21
:100F10002B0E0C6E000EE82EFED70C2EFCD70D2EDD
:100F2000FAD700D07C9E520E0D6E2B0E0C6E000E6A
:100F3000E82EFED70C2EFCD70D2EFAD700D005EFE9
:100F400007F007EF00F0D6EC08F0520EC1EC08F005
:100F5000B60EC1EC08F0CCEC08F0530EC1EC08F072
:100F6000010E43EC08F0076E07500A6E0B6A000E84
:100F700043EC08F0076E0750096E086A0A50081023
:100F80000A6E0B5009100B6ED1EC08F00AC005F088
:100F90000BC006F01200D6EC08F0520EC1EC08F0BF
:100FA000B80EC1EC08F0CCEC08F0530EC1EC08F020
:100FB000010E43EC08F0076E07500A6E0B6A000E34
:100FC00043EC08F0076E0750096E086A0A500810D3
:100FD0000A6E0B5009100B6ED1EC08F00AC005F038
:100FE0000BC006F01200D6EC08F0520EC1EC08F06F
:100FF000B40EC1EC08F0CCEC08F0530EC1EC08F0D4
:10100000010E43EC08F0076E07500A6E0B6A000EE3
:1010100043EC08F0076E0750096E086A0A50081082
:101020000A6E0B5009100B6ED1EC08F00AC005F0E7
:101030000BC006F01200D6EC08F0520EC1EC08F01E
:10104000BA0EC1EC08F0CCEC08F0530EC1EC08F07D
:10105000010E43EC08F0076E07500A6E0B6A000E93
:1010600043EC08F0076E0750096E086A0A50081032
:101070000A6E0B5009100B6ED1EC08F00AC005F097
:101080000BC006F01200036E93EC08F00E01DA8735
:1010900093EC08F0D5CE04F093EC08F00350D8B4EC
:1010A00054EF08F058EF08F0026A022A59EF08F0EE
:1010B000026A023A02460E01DA510218DF0B0218E8
:1010C000DA6FDA89045012007EEC08F0010E036E2C
:1010D000000EA7EC08F03F0E056E550EE82EFED769
:1010E000052EFCD70000030E036E000EA7EC08F0DF
:1010F000D50E036E010EA7EC08F012000E01D951B7
:10110000F00B0809D96FD98B9F0ED66F848A848C17
:10111000A79BA79D1D0E1D6F1E0E1C6F1C0E6F6FD3
:101120001B0E706F12000E01D8B599EF08F09BEFFF
:1011300008F093EF08F0DACE01F01F0E0116D8A4E4
:10114000A4EF08F0A6EF08F093EF08F01200046E89
:10115000D6EC08F0520EC1EC08F004508009C1EC46
:1011600008F00350C1EC08F0D1EC08F012008790B1
:10117000859E81968496889284987F907D9E7996AC
:101180001200026E93EC08F002C0D5FE1200169019
:101190001692000101EF07F093EC08F00E01DA83DC
:1011A000120093EC08F00E01DA85120093EC08F0BF
:1011B0000E01DA8112007C867F807D8E7986120096
:0A11C0007C967F907D9E79961200C8
:020000040030CA
:02000000AAFF55
:020004009FFF5C
:00000001FF
