:0400000021EF00F0FC
:1000080031820E0133A10BEF00F00DEF00F015EF78
:1000180000F0B9EC09F0010E306E7AEC09F00E012F
:10002800339133AB1AEF00F01CEF00F01FEF00F034
:0E003800339B264A272A3192110064EF09F00B
:100E00000000000E066E640E056E0A50D96EDA6A96
:100E1000060ED926DECF03F0DDCF04F0C7EC07F0D5
:100E200003C00CF004C00DF00A50D96EDA6ADECFB0
:100E300003F0DDCF04F00CC005F00DC006F0C7ECE8
:100E400007F00B50D96EDA6A03C0DEFF04C0DDFF85
:100E5000000E066E640E056E0A50D96EDA6A060E32
:100E6000D926DECF03F0DDCF04F0C7EC07F003C0D6
:100E70000CF004C00DF00A50D96EDA6A020ED926C1
:100E8000DECF03F0DDCF04F00CC005F00DC006F09E
:100E9000C7EC07F00B50D96EDA6A020ED92603C0F0
:100EA000DEFF04C0DDFF000E066E640E056E0A5004
:100EB000D96EDA6A060ED926DECF03F0DDCF04F054
:100EC000C7EC07F003C00CF004C00DF00A50D96E57
:100ED000DA6A040ED926DECF03F0DDCF04F00CC0B1
:100EE00005F00DC006F0C7EC07F00B50D96EDA6ABA
:100EF000040ED92603C0DEFF04C0DDFF1200EAECB9
:100F000008F085EC09F0849EA1EC08F056EC09F09D
:100F1000AAEC09F07C8E3050D8B491EF07F093EF33
:100F200007F08AEF07F001EC08F007C016F008C0E0
:100F300017F029EC08F007C018F008C019F079EC98
:100F400008F007C01AF008C01BF051EC08F007C009
:100F50001CF008C01DF0160E0A6E100E0B6E01EC90
:100F600007F07C9E520E0F6E2B0E0E6E000EE82EBA
:100F7000FED70E2EFCD70F2EFAD700D07C8EAAEC0F
:100F800009F0000E306E8AEF07F021EF00F0000E3E
:100F9000086E000E076E05500610D8B4D2EF07F0A9
:100FA000D4EF07F0FCEF07F0010E096EDCEF07F05D
:100FB000D89005360636092A06AEE1EF07F0E3EFD2
:100FC00007F0D8EF07F0D890073608360550035CD5
:100FD00006500458D8A0EFEF07F0F1EF07F0F6EF56
:100FE00007F00550035E0650045A0780D890063279
:100FF0000532092EE3EF07F007C003F008C004F044
:101000001200A5EC09F0520E8FEC09F0B60E8FEC31
:1010100009F09BEC09F0530E8FEC09F0010EC9ECBE
:1010200008F0096E09500C6E0D6A000EC9EC08F04C
:10103000096E09500B6E0A6A0C500A100C6E0D50A6
:101040000B100D6EA0EC09F00CC007F00DC008F0FD
:101050001200A5EC09F0520E8FEC09F0B80E8FECDF
:1010600009F09BEC09F0530E8FEC09F0010EC9EC6E
:1010700008F0096E09500C6E0D6A000EC9EC08F0FC
:10108000096E09500B6E0A6A0C500A100C6E0D5056
:101090000B100D6EA0EC09F00CC007F00DC008F0AD
:1010A0001200A5EC09F0520E8FEC09F0B40E8FEC93
:1010B00009F09BEC09F0530E8FEC09F0010EC9EC1E
:1010C00008F0096E09500C6E0D6A000EC9EC08F0AC
:1010D000096E09500B6E0A6A0C500A100C6E0D5006
:1010E0000B100D6EA0EC09F00CC007F00DC008F05D
:1010F0001200A5EC09F0520E8FEC09F0BA0E8FEC3D
:1011000009F09BEC09F0530E8FEC09F0010EC9ECCD
:1011100008F0096E09500C6E0D6A000EC9EC08F05B
:10112000096E09500B6E0A6A0C500A100C6E0D50B5
:101130000B100D6EA0EC09F00CC007F00DC008F00C
:101140001200080E0D01F06F0E012981F2901F911F
:101150009A91000E056E040E46EC09F0010E056E24
:10116000050E46EC09F0000E056E060E46EC09F081
:10117000030E056E070E46EC09F0070E056E0C0E09
:1011800046EC09F00E01298BF28C6FEC09F0F28E1F
:101190001200056E1EEC09F00E01DA871EEC09F054
:1011A000D5CE06F01EEC09F00550D8B4DAEF08F001
:1011B000DEEF08F0046A042ADFEF08F0046A043A5C
:1011C00004460E01DA510418DF0B0418DA6FDA89CD
:1011D0000650120009EC09F0010E056E000E46ECF7
:1011E00009F03F0E076E550EE82EFED7072EFCD7EE
:1011F0000000030E056E000E46EC09F0F60E056EBB
:10120000010E46EC09F0130E056E000E46EC09F0D7
:1012100012000E01D951F00B0809D96FD98B9F0E1E
:10122000D66F848A848CA79BA79D1D0E1D6F1E0EF2
:101230001C6F1C0E6F6F1B0E706F12000E01D8B565
:1012400024EF09F026EF09F01EEF09F0DACE03F0E3
:101250001F0E0316D8A42FEF09F031EF09F01EEF8F
:1012600009F012000E01D8B538EF09F03AEF09F095
:1012700032EF09F0DACE01F01F0E0116D8A443EFC9
:1012800009F045EF09F032EF09F01200066EA5EC07
:1012900009F0520E8FEC09F0065080098FEC09F02E
:1012A00005508FEC09F0A0EC09F01200D6501F0B8E
:1012B0004009D66ED688F00ED616D588000ED46EAC
:1012C000DC0ED36ED58E120000EE1EF0130EEE6A09
:1012D000E806FDE13190319200017FEF07F0A5ECC7
:1012E00009F0520E8FEC09F0E60E8FEC09F0A0EC3D
:1012F00009F01200B4EC09F0520E95EC09F0E60E7C
:1013000095EC09F0AFEC09F012008790859E81966C
:101310008496889284987F907D9E79961200046EC0
:101320001EEC09F004C0D5FE1200026E32EC09F08A
:1013300002C0D5FE12001EEC09F00E01DA83120085
:101340001EEC09F00E01DA8512001EEC09F00E0108
:10135000DA8112007C867F807D8E7986120032ECE5
:1013600009F00E01DA85120032EC09F00E01DA8183
:0C13700012007C967F907D9E7996120002
:020000040030CA
:02000000AAFF55
:020004009FFF5C
:00000001FF
