:0400000023EF00F0FA
:100008004D820E0133A10BEF00F00DEF00F016EF5B
:1000180000F07C8E010E00018C6F40EC15F00E0193
:100028003391F29E33AB1BEF00F01DEF00F021EF90
:1000380000F0339B0001884B892B4D9211003DEF56
:0200480014F0B2
:100E000000002A50D96EDA6A040ED926010EDB5092
:100E100009E1120EDE5CD8A010EF07F012EF07F028
:100E200021EF07F02CC01CF02DC01DF0000E1F6E2E
:100E3000100E1E6E000E206E9FEC09F0020EFAEFEF
:100E400007F02A50D96EDA6A040ED926010EDB505B
:100E500009E10D0EDE5CD8A030EF07F032EF07F0AD
:100E600044EF07F02A50D96EDA6A010EDB5007E131
:100E7000320EDE5CD8B03FEF07F041EF07F044EFF1
:100E800007F0060EFAEF07F02A50D96EDA6A020E62
:100E9000D926010EDB5007E1160EDE5CD8B053EF09
:100EA00007F055EF07F058EF07F0000EFAEF07F0E4
:100EB000ACEC15F0520E2F6E2B0E2E6E000EE82E9F
:100EC000FED72E2EFCD72F2EFAD700D02CC01CF028
:100ED0002DC01DF0000E1F6E080E1E6E010E206E3E
:100EE0009FEC09F02BC00EF0DEEC0FF02BC010F0E1
:100EF0002AC011F0B3EC0BF02CC01CF02DC01DF07B
:100F0000000E1F6E100E1E6E000E206E9FEC09F07C
:100F10002A50D96EDA6A060ED926DE52030EDE5C3E
:100F2000D8B095EF07F097EF07F09AEF07F0080EAB
:100F3000FAEF07F02A50D96EDA6A020ED926010EAE
:100F4000DB5009E1310EDE5CD8A0A9EF07F0ABEF72
:100F500007F0AEEF07F0010EFAEF07F02A50D96E56
:100F6000DA6A010EDB5009E13D0EDE5CD8A0BBEF72
:100F700007F0BDEF07F0D1EF07F02A50D96EDA6A1B
:100F8000020ED926010EDB5007E11E0EDE5CD8B042
:100F9000CCEF07F0CEEF07F0D1EF07F0050EFAEF38
:100FA00007F02A50D96EDA6A040ED926010EDB50FA
:100FB00007E1070EDE5CD8B0E0EF07F0E2EF07F0E4
:100FC000E5EF07F0030EFAEF07F02A50D96EDA6A60
:100FD000020ED926010EDB5009E1230EDE5CD8A0FB
:100FE000F4EF07F0F6EF07F0F9EF07F0070EFAEF6E
:100FF00007F0040E12008AEC14F04BEC15F0A2EC92
:1010000015F090EC15F0000E046E630E036E6CECA0
:1010100012F0000E0001A76F010EA86F010EA96F5C
:10102000000EAB6F630EAA6FAA0EAC6F0F0EAD6F02
:10103000A60EAE6F0F0EAF6FA70E106E09EC0BF081
:10104000000E00019E6F010E9F6F010EA06F000E3B
:10105000A26F630EA16F250EA36F0F0EA46F210E5A
:10106000A56F0F0EA66F9E0E106E09EC0BF0A70E6B
:10107000276E9E0E286EB5EC11F04B6E290E406E59
:10108000960E3F6E7F0EE82EFED73F2EFCD7402EE9
:10109000FAD70000A70E276E9E0E286E52EC11F0B4
:1010A0004A6E54EC13F025EC15F0ACEC15F0520E32
:1010B000406E2B0E3F6E000EE82EFED73F2EFCD763
:1010C000402EFAD700D08EB468EF08F06AEF08F02F
:1010D00063EF08F0000E0001896F000E886F0001B9
:1010E0008C51D8B476EF08F078EF08F0BEEF08F036
:1010F000A70E156E9E0E166EEAEC12F0960E0E6E90
:10110000DEEC0FF0960E106E8E0E116EB3EC0BF03F
:101110008E0E2A6E960E2B6EA70E2C6E9E0E2D6EC8
:1011200001EC07F000018D6F8D5118EC12F00001F9
:101130008B51020DF350600FD96EDA6A8DC0DFFF5C
:101140008B51020DF350610FD96EDA6A88C0DFFF50
:101150008B2BA70E2A6E9E0E2B6E8DC02CF05DEC95
:101160000AF0ACEC15F0000E0001896F000E886FDC
:10117000000E8C6F35EC15F0F28E7C9E00018A51CA
:10118000D8B4C5EF08F0C7EF08F0CDEF08F0A70E10
:101190002F6E9E0E306EEEEC10F08EB6D2EF08F091
:1011A000D4EF08F0D7EF08F0010E00018A6FA70E08
:1011B000156E9E0E166E67EC10F06FEF08F023EFC1
:1011C00000F01C50D96EDA6ADF50D8A4EAEF08F0BC
:1011D000ECEF08F0F7EF08F01D50D96EDA6ADF5037
:1011E000D8B4F5EF08F0F7EF08F0FDEF08F01CC0F9
:1011F00015F01DC016F01FEC13F0000E0001896FF2
:10120000000E886F1C50D96EDA6A010ED926010EC5
:10121000DF6E1D50D96EDA6A010ED926010EDF6E1F
:101220001C50D96EDA6ADF50276E0A0E286E0A0E3D
:1012300027601DEF09F01FEF09F054EF09F027C0F8
:1012400023F0246A40EF09F01C50D96EDA6A23C0FB
:10125000DFFF1D50D96EDA6A23C0DFFF1CC010F01B
:1012600009EC0BF01DC010F009EC0BF0680E206EBD
:10127000E40EE82EFED7202EFCD700D0234A242AE5
:101280002850206E216A2350205C2150800A226E53
:101290002450800A2258D8B050EF09F052EF09F0DC
:1012A00024EF09F088EF09F027C025F0266A76EFD1
:1012B00009F01C50D96EDA6A25C0DFFF1D50D96EC7
:1012C000DA6A25C0DFFF1CC010F009EC0BF01DC06E
:1012D00010F009EC0BF0680E206EE40EE82EFED73D
:1012E000202EFCD700D02506D8A026062850206E38
:1012F000216A2050255C2650800A226E2150800AE7
:101300002258D8B086EF09F088EF09F059EF09F0BC
:101310001E500001885D8951800A206E1F50800A8E
:101320002058D8A096EF09F098EF09F088EF09F05F
:101330001CC015F01DC016F01FEC13F012001C505D
:10134000D96EDA6ADF50D8A4A8EF09F0AAEF09F045
:10135000B5EF09F01D50D96EDA6ADF50D8B4B3EF9B
:1013600009F0B5EF09F0BBEF09F01CC015F01DC086
:1013700016F01FEC13F0000E0001896F000E886F4D
:101380001C50D96EDA6A010ED92620C0DFFF1D502D
:10139000D96EDA6A010ED92620C0DFFF1C50D96E43
:1013A000DA6ADF50286E0A0E296E0A0E2860DBEF1B
:1013B00009F0DDEF09F012EF0AF028C024F0256AE9
:1013C000FEEF09F01C50D96EDA6A24C0DFFF1D5011
:1013D000D96EDA6A24C0DFFF1CC010F009EC0BF0F4
:1013E0001DC010F009EC0BF0680E216EE40EE82E23
:1013F000FED7212EFCD700D0244A252A2950216E61
:10140000226A2450215C2250800A236E2550800AD3
:101410002358D8B00EEF0AF010EF0AF0E2EF09F00F
:1014200046EF0AF028C026F0276A34EF0AF01C5075
:10143000D96EDA6A26C0DFFF1D50D96EDA6A26C07F
:10144000DFFF1CC010F009EC0BF01DC010F009EC20
:101450000BF0680E216EE40EE82EFED7212EFCD78D
:1014600000D02606D8A027062950216E226A2150D6
:10147000265C2750800A236E2250800A2358D8B059
:1014800044EF0AF046EF0AF017EF0AF01E50000191
:10149000885D8951800A216E1F50800A2158D8A08A
:1014A00054EF0AF056EF0AF046EF0AF01CC015F0B0
:1014B0001DC016F01FEC13F01200C7EF0AF02AC08F
:1014C00027F02BC028F055EC15F008EF0BF02AC0E0
:1014D00027F02BC028F05EEC15F008EF0BF02AC0C7
:1014E00026F02BC027F083EC15F008EF0BF02AC094
:1014F00028F02BC029F0DCEC14F008EF0BF02AC028
:1015000028F02BC029F0EFEC14F008EF0BF02AC004
:1015100026F02BC027F075EC15F008EF0BF02AC071
:1015200026F02BC027F07CEC15F008EF0BF02AC05A
:1015300003F02BC004F0CAEC15F008EF0BF02AC042
:1015400003F02BC004F0CEEC15F008EF0BF02AC02E
:1015500028F02BC029F058EC14F008EF0BF02AC04B
:1015600028F02BC029F071EC14F008EF0BF02AC022
:1015700026F02BC027F067EC15F008EF0BF02AC01F
:1015800026F02BC027F06EEC15F008EF0BF02C5076
:101590002D6E2E6A2E50000AD8B4D1EF0AF008EF53
:1015A0000BF02D50000AD8B45FEF0AF0010AD8B44E
:1015B00067EF0AF0030AD8B46FEF0AF0010AD8B453
:1015C00077EF0AF0070AD8B47FEF0AF0010AD8B41F
:1015D00087EF0AF0030AD8B48FEF0AF0010AD8B4F3
:1015E00097EF0AF00F0AD8B49FEF0AF0010AD8B4B7
:1015F000A7EF0AF0030AD8B4AFEF0AF0010AD8B493
:10160000B7EF0AF0070AD8B4BFEF0AF008EF0BF003
:1016100012001050D96EDA6A020ED926DF50D8B403
:1016200014EF0BF016EF0BF046EF0BF01050D96EE5
:10163000DA6ADF50116E1150036E046A1050D96ED1
:10164000DA6A030ED926DECF05F0DDCF06F002EC14
:1016500015F003C009F004C00AF0000E0C6E640E11
:101660000B6EB0EC12F01050D96EDA6A030ED92668
:10167000DF50126E0950125C136E1050D96EDA6A88
:10168000030ED926DF50146E67EF0BF0000E136EB9
:101690001050D96EDA6ADF50116E1150036E046A71
:1016A0001050D96EDA6A030ED926DECF05F0DDCFF1
:1016B00006F002EC15F003C009F004C00AF0000EB9
:1016C0000C6E640E0B6EB0EC12F00950146E1050DC
:1016D000D96EDA6A010ED926DF50D8B472EF0BF05A
:1016E00074EF0BF094EF0BF01050D96EDA6A050E20
:1016F000D926DECF11F0DDCF12F011C0D9FF12C014
:10170000DAFF13C0DFFF1050D96EDA6A070ED92650
:10171000DECF11F0DDCF12F011C0D9FF12C0DAFF19
:1017200014C0DFFFB2EF0BF01050D96EDA6A050E6D
:10173000D926DECF11F0DDCF12F011C0D9FF12C0D3
:10174000DAFF14C0DFFF1050D96EDA6A070ED9260F
:10175000DECF11F0DDCF12F011C0D9FF12C0DAFFD9
:1017600013C0DFFF12001050D96EDA6A040ED926BA
:10177000DECF12F0DDCF13F01050D96EDA6A020E10
:10178000D926DECF14F0DDCF15F01050D96EDA6A0D
:10179000DECF16F0DDCF17F014501624186E15505A
:1017A0001720196E125018241A6E135019201B6E30
:1017B000000E0C6E640E0B6E1AC009F01BC00AF00E
:1017C000B0EC12F009C01CF00AC01DF01050D96E28
:1017D000DA6ADECF09F0DDCF0AF01CC00BF01DC0C5
:1017E0000CF0B0EC12F01150D96EDA6A09C0DEFFCD
:1017F0000AC0DDFF000E0C6E640E0B6E1AC009F0FD
:101800001BC00AF0B0EC12F009C01CF00AC01DF0B9
:101810001050D96EDA6A020ED926DECF09F0DDCF7C
:101820000AF01CC00BF01DC00CF0B0EC12F011500F
:10183000D96EDA6A020ED92609C0DEFF0AC0DDFFC2
:10184000000E0C6E640E0B6E1AC009F01BC00AF07D
:10185000B0EC12F009C01CF00AC01DF01050D96E97
:10186000DA6A040ED926DECF09F0DDCF0AF01CC0FB
:101870000BF01DC00CF0B0EC12F01150D96EDA6A0A
:10188000040ED92609C0DEFF0AC0DDFF1050D96E54
:10189000DA6A060ED9261150E16EE26A060EE126DA
:1018A000DECFE6FFDDCFE5FF12001C50D96EDA6A0D
:1018B000DF50D8A45EEF0CF060EF0CF06BEF0CF093
:1018C0001D50D96EDA6ADF50D8B469EF0CF06BEFB7
:1018D0000CF071EF0CF01CC015F01DC016F01FECE1
:1018E00013F01C50D96EDA6A010ED926010EDF6E94
:1018F0001D50D96EDA6A010ED926DF6A1EC021F0AA
:10190000226A000E246E000E236EA7EF0CF01C500E
:10191000D96EDA6A23C0DFFF1D50D96EDA6A23C0A0
:10192000DFFF1CC010F009EC0BF01DC010F009EC3B
:101930000BF0020E206E380E1F6EAD0EE82EFED795
:101940001F2EFCD7202EFAD70000234A242A21502C
:10195000235C2450800A1F6E2250800A1F58D8A092
:10196000B4EF0CF0B6EF0CF087EF0CF0150E206E14
:101970004B0E1F6EBE0EE82EFED71F2EFCD7202E5C
:10198000FAD700D021C025F022C026F026BECDEF28
:101990000CF0CBEF0CF0CFEF0CF0EEEF0CF01C5096
:1019A000D96EDA6A25C0DFFF1D50D96EDA6A25C00C
:1019B000DFFF1CC010F009EC0BF01DC010F009ECAB
:1019C0000BF0680E1F6EE40EE82EFED71F2EFCD71C
:1019D00000D02506D8A02606C6EF0CF012001C5039
:1019E000D96EDA6ADF50D8A4F8EF0CF0FAEF0CF0F9
:1019F00005EF0DF01D50D96EDA6ADF50D8B403EF51
:101A00000DF005EF0DF00BEF0DF01CC015F01DC033
:101A100016F01FEC13F01C50D96EDA6A010ED926AD
:101A2000DF6A1D50D96EDA6A010ED926010EDF6E0B
:101A30001EC021F0226A000E246E000E236E41EFBC
:101A40000DF01C50D96EDA6A23C0DFFF1D50D96E2D
:101A5000DA6A23C0DFFF1CC010F009EC0BF01DC0D8
:101A600010F009EC0BF0020E206E380E1F6EAD0E5A
:101A7000E82EFED71F2EFCD7202EFAD70000234ACF
:101A8000242A2150235C2450800A1F6E2250800A91
:101A90001F58D8A04EEF0DF050EF0DF021EF0DF0D4
:101AA000170E206EBB0E1F6E1D0EE82EFED71F2ECA
:101AB000FCD7202EFAD7000021C025F022C026F046
:101AC00026BE67EF0DF065EF0DF069EF0DF088EFC2
:101AD0000DF01C50D96EDA6A25C0DFFF1D50D96E9B
:101AE000DA6A25C0DFFF1CC010F009EC0BF01DC046
:101AF00010F009EC0BF0680E1F6EE40EE82EFED716
:101B00001F2EFCD700D02506D8A0260660EF0DF0CA
:101B100012001C50D96EDA6ADF50D8A492EF0DF093
:101B200094EF0DF09FEF0DF01D50D96EDA6ADF5083
:101B3000D8B49DEF0DF09FEF0DF0A5EF0DF01CC098
:101B400015F01DC016F01FEC13F01C50D96EDA6AA8
:101B5000010ED926010EDF6E1D50D96EDA6A010E14
:101B6000D926DF6A000E216E280E206E000E236E2D
:101B7000000E226ED8EF0DF01C50D96EDA6A22C02A
:101B8000DFFF1D50D96EDA6A22C0DFFF1CC010F0E3
:101B900009EC0BF01DC010F009EC0BF0680E1E6E86
:101BA000E40EE82EFED71E2EFCD700D0224A232AB0
:101BB0002050225C2350800A1E6E2150800A1E583D
:101BC000D8A0E5EF0DF0E7EF0DF0BCEF0DF0220E21
:101BD0001F6E480E1E6E620EE82EFED71E2EFCD71C
:101BE0001F2EFAD700D020C024F021C025F025BE3A
:101BF000FEEF0DF0FCEF0DF000EF0EF01FEF0EF01A
:101C00001C50D96EDA6A24C0DFFF1D50D96EDA6A23
:101C100024C0DFFF1CC010F009EC0BF01DC010F059
:101C200009EC0BF0680E1E6EE40EE82EFED71E2E99
:101C3000FCD700D02406D8A02506F7EF0DF012003F
:101C40001C50D96EDA6ADF50D8A429EF0EF02BEFC2
:101C50000EF036EF0EF01D50D96EDA6ADF50D8B4B0
:101C600034EF0EF036EF0EF03CEF0EF01CC015F026
:101C70001DC016F01FEC13F01C50D96EDA6A010E6D
:101C8000D926DF6A1D50D96EDA6A010ED926010EF7
:101C9000DF6E000E216E280E206E000E236E000EE9
:101CA000226E6FEF0EF01C50D96EDA6A22C0DFFF91
:101CB0001D50D96EDA6A22C0DFFF1CC010F009EC9B
:101CC0000BF01DC010F009EC0BF0680E1E6EE40E58
:101CD000E82EFED71E2EFCD700D0224A232A205001
:101CE000225C2350800A1E6E2150800A1E58D8A004
:101CF0007CEF0EF07EEF0EF053EF0EF0220E1F6E13
:101D0000480E1E6E620EE82EFED71E2EFCD71F2E2A
:101D1000FAD700D020C024F021C025F025BE95EFD1
:101D20000EF093EF0EF097EF0EF0B6EF0EF01C50A2
:101D3000D96EDA6A24C0DFFF1D50D96EDA6A24C07A
:101D4000DFFF1CC010F009EC0BF01DC010F009EC17
:101D50000BF0680E1E6EE40EE82EFED71E2EFCD78A
:101D600000D02406D8A025068EEF0EF012001C50DD
:101D7000D96EDA6ADF50D8A4C0EF0EF0C2EF0EF0D1
:101D8000CDEF0EF01D50D96EDA6ADF50D8B4CBEF2C
:101D90000EF0CDEF0EF0D3EF0EF01CC015F01DC00D
:101DA00016F01FEC13F01C50D96EDA6A010ED9261A
:101DB000DF6A1D50D96EDA6A010ED926010EDF6E78
:101DC000000E216E280E206E000E236E000E226E75
:101DD00006EF0FF01C50D96EDA6A22C0DFFF1D50EB
:101DE000D96EDA6A22C0DFFF1CC010F009EC0BF0DC
:101DF0001DC010F009EC0BF0680E1E6EE40EE82E0C
:101E0000FED71E2EFCD700D0224A232A2050225C67
:101E10002350800A1E6E2150800A1E58D8A013EF4E
:101E20000FF015EF0FF0EAEF0EF0290E1F6E960E71
:101E30001E6E7F0EE82EFED71E2EFCD71F2EFAD761
:101E4000000020C024F021C025F025BE2CEF0FF0AB
:101E50002AEF0FF02EEF0FF04DEF0FF01C50D96E60
:101E6000DA6A24C0DFFF1D50D96EDA6A24C0DFFFB2
:101E70001CC010F009EC0BF01DC010F009EC0BF0C9
:101E8000680E1E6EE40EE82EFED71E2EFCD700D084
:101E90002406D8A0250625EF0FF012001C50D96E9D
:101EA000DA6ADF50D8A457EF0FF059EF0FF064EF64
:101EB0000FF01D50D96EDA6ADF50D8B462EF0FF020
:101EC00064EF0FF06AEF0FF01CC015F01DC016F0A4
:101ED0001FEC13F01F04D8A470EF0FF072EF0FF097
:101EE00080EF0FF01C50D96EDA6A010ED926DF6A36
:101EF0001D50D96EDA6A010ED926DF6A8EEF0FF017
:101F00001C50D96EDA6A010ED926010EDF6E1D5003
:101F1000D96EDA6A010ED926010EDF6E000E276E29
:101F2000000E266E1C50D96EDA6A26C0DFFF1D50E7
:101F3000D96EDA6A26C0DFFF1CC010F009EC0BF086
:101F40001DC010F009EC0BF0680E206EE40EE82EB8
:101F5000FED7202EFCD700D0264A272A27BEBAEF6C
:101F60000FF0275009E1150E265CD8A0BAEF0FF04C
:101F7000BCEF0FF092EF0FF088C025F01E50206EDE
:101F8000216A25500001885D226E000E8959236E5A
:101F90002050225C2350800A246E2150800A24584D
:101FA000D8A0D5EF0FF0D7EF0FF0BEEF0FF01CC0A9
:101FB00015F01DC016F01FEC13F01200ACEC15F07C
:101FC000CCEC13F00E50D96EDA6A060ED92607C093
:101FD000DEFF08C0DDFF090E106E1E0E0F6EE40E50
:101FE000E82EFED70F2EFCD7102EFAD700D0B1EC7A
:101FF00015F07F80090E106E1E0E0F6EE40EE82E97
:10200000FED70F2EFCD7102EFAD700D07CEC13F0A1
:102010000E50D96EDA6A07C0DEFF08C0DDFF090E78
:10202000106E1E0E0F6EE40EE82EFED70F2EFCD79C
:10203000102EFAD700D07F907D8E090E106E1E0EE6
:102040000F6EE40EE82EFED70F2EFCD7102EFAD717
:1020500000D0A4EC13F00E50D96EDA6A020ED92625
:1020600007C0DEFF08C0DDFF090E106E1E0E0F6EEA
:10207000E40EE82EFED70F2EFCD7102EFAD700D094
:102080007D9E7986090E106E1E0E0F6EE40EE82EF0
:10209000FED70F2EFCD7102EFAD700D0F4EC13F099
:1020A0000E50D96EDA6A040ED92607C0DEFF08C0CA
:1020B000DDFF090E106E1E0E0F6EE40EE82EFED729
:1020C0000F2EFCD7102EFAD700D07996120015509B
:1020D000D96EDA6A010ED926010EDF6E1650D96E5E
:1020E000DA6A010ED926010EDF6E1550D96EDA6A52
:1020F000DF501E6E0C0E1F6E0C0E1E6082EF10F075
:1021000084EF10F0B9EF10F01EC01AF01B6AA5EFB3
:1021100010F01550D96EDA6A1AC0DFFF1650D96E6A
:10212000DA6A1AC0DFFF15C010F009EC0BF016C018
:1021300010F009EC0BF0680E176EE40EE82EFED7D7
:10214000172EFCD700D01A4A1B2A1F50176E186A88
:102150001A50175C1850800A196E1B50800A1958C3
:10216000D8B0B5EF10F0B7EF10F089EF10F0EDEF49
:1021700010F01EC01CF01D6ADBEF10F01550D96E78
:10218000DA6A1CC0DFFF1650D96EDA6A1CC0DFFFA6
:1021900015C010F009EC0BF016C010F009EC0BF0B4
:1021A000680E176EE40EE82EFED7172EFCD700D06F
:1021B0001C06D8A01D061F50176E186A17501C5C0D
:1021C0001D50800A196E1850800A1958D8B0EBEFCC
:1021D00010F0EDEF10F0BEEF10F0120088C03BF0F1
:1021E00089C03CF02FC01CF030C01DF0B7EC0EF0E1
:1021F0002FC01CF030C01DF03BC01EF03CC01FF0D3
:10220000E1EC08F020EE41F010EE32F0080EDBCFEA
:10221000E3FFE806FCE28BC03DF03E6A3EBE15EFF0
:1022200011F013EF11F017EF11F041EF11F02FC083
:102230002AF030C02BF03D50020DF350600FD96EE4
:10224000DA6ADF50316E3150320FD96EDA6ADF5000
:102250002C6E5DEC0AF02FC01CF030C01DF03D501C
:10226000020DF350610FD96EDA6ADF50316E3150D2
:102270001E6E1F6AE1EC08F03D06D8A03E060EEF88
:1022800011F02FC015F030C016F01FEC13F0000E47
:1022900000018B6F8EB44FEF11F051EF11F04AEF48
:1022A00011F012008EB457EF11F059EF11F052EF08
:1022B00011F01A0E2B6EA5EF11F0520E2A6E2B0E96
:1022C000296E000EE82EFED7292EFCD72A2EFAD72B
:1022D00000D027C01CF028C01DF02BC01EF055EC0C
:1022E0000CF08EA476EF11F078EF11F07FEF11F083
:1022F0008EB67DEF11F07FEF11F071EF11F0070E48
:102300002A6E7F0E296E500EE82EFED7292EFCD79E
:102310002A2EFAD78EB48FEF11F091EF11F09AEFC9
:1023200011F08EB696EF11F098EF11F09AEF11F0D0
:10233000A5EF11F08EB49FEF11F0A1EF11F0A4EF13
:1023400011F02B2AA5EF11F02B068EB4AAEF11F095
:10235000ACEF11F05DEF11F08EB6B1EF11F0B3EF0D
:1023600011F05DEF11F02B5012008EB4BAEF11F0A6
:10237000BCEF11F0B5EF11F01A0E2B6E08EF12F052
:10238000520E2A6E2B0E296E000EE82EFED7292E35
:10239000FCD72A2EFAD700D027C01CF028C01DF089
:1023A0002BC01EF0EFEC0CF08EA4D9EF11F0DBEF98
:1023B00011F0E2EF11F08EB6E0EF11F0E2EF11F064
:1023C000D4EF11F0070E2A6E7F0E296E500EE82E04
:1023D000FED7292EFCD72A2EFAD78EB4F2EF11F0B1
:1023E000F4EF11F0FDEF11F08EB6F9EF11F0FBEF05
:1023F00011F0FDEF11F008EF12F08EB402EF12F0C1
:1024000004EF12F007EF12F02B0608EF12F02B2A60
:102410008EB40DEF12F00FEF12F0C0EF11F08EB688
:1024200014EF12F016EF12F0C0EF11F02B50120063
:10243000066E000E0A6E000E096E000E086E000E8B
:10244000076E3DEF12F080860D0E046E2D0E036EAA
:10245000D80EE82EFED7032EFCD7042EFAD780968E
:102460000D0E046E2D0E036ED80EE82EFED7032E31
:10247000FCD7042EFAD7074A082A0650036E046ACE
:102480000350075C0850800A056E0450800A055806
:10249000D8A04DEF12F04FEF12F023EF12F0290EFB
:1024A000046E960E036E7F0EE82EFED7032EFCD729
:1024B000042EFAD70000094A0A2A0ABE69EF12F070
:1024C0000A5009E1020E095CD8A069EF12F06BEF27
:1024D00012F01DEF12F0120085948598839E879C60
:1024E000050E0E01746F060E766F070E696F080EEB
:1024F000886FBD508F0B4009BD6EE00EBE16BF50F9
:10250000F00B0109BF6E03C0BCFFBD8E000EAA6EAA
:10251000000EA66E000E0F01256F000E216FFC0E3F
:10252000AD16F30EAD16CF0EAD163F0EAD16AB8841
:10253000AB50F00B0C09AB6EAB8EA788A750F00B1D
:102540000C09A76EA78E26892651F00B0C09266F61
:10255000268F22892251F00B0C09226F228F120044
:10256000000E0E6E000E0D6E0B500C10D8B4BBEFAB
:1025700012F0BDEF12F0E5EF12F0010E0F6EC5EF95
:1025800012F0D8900B360C360F2A0CAECAEF12F0B0
:10259000CCEF12F0C1EF12F0D8900D360E360B5082
:1025A000095C0C500A58D8A0D8EF12F0DAEF12F0FC
:1025B000DFEF12F00B50095E0C500A5A0D80D890D4
:1025C0000C320B320F2ECCEF12F00DC009F00EC002
:1025D0000AF012001550D96EDA6ADF50176E1750E4
:1025E000186E196A18C01AF019C01BF01BBEFDEF57
:1025F00012F0FBEF12F0FFEF12F01EEF13F0155088
:10260000D96EDA6A1AC0DFFF1650D96EDA6A1AC0BC
:10261000DFFF15C010F009EC0BF016C010F009EC4C
:102620000BF0150E176EC60EE82EFED7172EFCD730
:1026300000D01A06D8A01B06F6EF12F012001550B3
:10264000D96EDA6ADF50176E1750186E196A18C003
:102650001AF019C01BF01BBE32EF13F030EF13F06D
:1026600034EF13F053EF13F01550D96EDA6A1AC035
:10267000DFFF1650D96EDA6A1AC0DFFF15C010F0FE
:1026800009EC0BF016C010F009EC0BF0680E176E99
:10269000E40EE82EFED7172EFCD700D01A06D8A0DD
:1026A0001B062BEF13F01200080E0D01F06F0E0148
:1026B0002981F2901F919A91000E056E040E15EC7F
:1026C00015F0010E056E050E15EC15F0000E056EE9
:1026D000060E15EC15F0020E056E070E15EC15F042
:1026E000030E056E0C0E15EC15F00E01298BF28C05
:1026F00035EC15F0F28E1200BBEC15F0520E96EC94
:1027000015F0B60E96EC15F0A7EC15F0530E96ECFE
:1027100015F0010E1CEC14F0096E09500C6E0D6AD8
:10272000000E1CEC14F0096E09500B6E0A6A0C5076
:102730000A100C6E0D500B100D6EB6EC15F00CC09F
:1027400007F00DC008F01200BBEC15F0520E96EC2D
:1027500015F0B80E96EC15F0A7EC15F0530E96ECAC
:1027600015F0010E1CEC14F0096E09500C6E0D6A88
:10277000000E1CEC14F0096E09500B6E0A6A0C5026
:102780000A100C6E0D500B100D6EB6EC15F00CC04F
:1027900007F00DC008F01200BBEC15F0520E96ECDD
:1027A00015F0B40E96EC15F0A7EC15F0530E96EC60
:1027B00015F0010E1CEC14F0096E09500C6E0D6A38
:1027C000000E1CEC14F0096E09500B6E0A6A0C50D6
:1027D0000A100C6E0D500B100D6EB6EC15F00CC0FF
:1027E00007F00DC008F01200BBEC15F0520E96EC8D
:1027F00015F0BA0E96EC15F0A7EC15F0530E96EC0A
:1028000015F0010E1CEC14F0096E09500C6E0D6AE7
:10281000000E1CEC14F0096E09500B6E0A6A0C5085
:102820000A100C6E0D500B100D6EB6EC15F00CC0AE
:1028300007F00DC008F01200056EB4EC14F00E01A4
:10284000DA87B4EC14F0D5CE06F0B4EC14F00550F1
:10285000D8B42DEF14F031EF14F0046A042A32EFEB
:1028600014F0046A043A04460E01DA510418DF0B2E
:102870000418DA6FDA8906501200140EF66E2B0E69
:10288000F76E000EF86E00EE41F010EE0CF009004D
:10289000F5CFEEFFE550E150FAE100EE60F02D0ECD
:1028A000EE6AE806FDE14D904D920001FBEF07F066
:1028B00028C01CF029C01DF04BC01EF0EFEC0CF03E
:1028C00028C01CF029C01DF0100E1E6E000E1F6ED9
:1028D0004EEC0FF028C01CF029C01DF0B7EC0EF034
:1028E000120028C01CF029C01DF04AC01EF055EC93
:1028F0000CF028C01CF029C01DF0100E1E6E000E3A
:102900001F6E4EEC0FF028C01CF029C01DF0B7EC74
:102910000EF012009FEC14F0F60E056E010E15EC91
:1029200015F0130E056E000E15EC15F03F0E076E38
:10293000550EE82EFED7072EFCD7000012000E0120
:10294000D951F00B0809D96FD98B9F0ED66F848AA5
:10295000848CA79BA79D1D0E1D6F1E0E1C6F1C0E49
:102960006F6F1B0E706F12000E01D8B5BAEF14F026
:10297000BCEF14F0B4EF14F0DACE03F01F0E031620
:10298000D8A4C5EF14F0C7EF14F0B4EF14F01200A0
:102990000E01D8B5CEEF14F0D0EF14F0C8EF14F05C
:1029A000DACE01F01F0E0116D8A4D9EF14F0DBEF38
:1029B00014F0C8EF14F0120028C01CF029C01DF05C
:1029C000100E1E6E010E1F6E4EEC0FF028C01CF094
:1029D00029C01DF04AC01EF055EC0CF0120028C0B2
:1029E0001CF029C01DF0100E1E6E010E1F6E4EEC65
:1029F0000FF028C01CF029C01DF04BC01EF0EFECFA
:102A00000CF0120003500502F3CF07F0F4CF08F0EA
:102A100003500602F350082604500502F35008261E
:102A200007C003F008C004F01200066EBBEC15F0FE
:102A3000520E96EC15F00650800996EC15F00550F4
:102A400096EC15F0B6EC15F01200D6501F0B4009AD
:102A5000D66ED688D650F00B0509D66ED588000EF6
:102A6000D46E000ED36ED58E1200BBEC15F0520E54
:102A700096EC15F0E60E96EC15F0B6EC15F012009B
:102A8000C5EC15F0520E9CEC15F0E60E9CEC15F022
:102A9000C0EC15F012008790859E819684968892EE
:102AA00084987F907D9E7996120027C01CF028C0E4
:102AB0001DF04AC01EF055EC0CF0120027C01CF0AF
:102AC00028C01DF04BC01EF0EFEC0CF0120026C029
:102AD0001CF027C01DF089EC0DF0120026C01CF080
:102AE00027C01DF020EC0EF0120026C01CF027C0FD
:102AF0001DF089EC0DF0120026C01CF027C01DF05F
:102B000020EC0EF0120026C01CF027C01DF0B7EC20
:102B10000EF01200010002090A0B0CFFFF1C1C1032
:102B200086840E01B4958686B4971200046EB4ECC8
:102B300014F004C0D5FE1200026EC8EC14F002C0FE
:102B4000D5FE1200849E7C9E889680961200B4EC7E
:102B500014F00E01DA8312007C867F807D8E7986E8
:102B600012007C967F907D9E79961200B4EC14F052
:102B70000E01DA851200B4EC14F00E01DA811200B5
:102B8000C8EC14F00E01DA851200C8EC14F00E0146
:0E2B9000DA811200010E00018A6F120012009D
:020000040030CA
:02000000AAFF55
:020004009FFF5C
:00000001FF
