:0400000023EF00F0FA
:100008004C820E0133A10BEF00F00DEF00F016EF5C
:1000180000F07C8E010E00018C6FC8EC14F00E010C
:100028003391F29E33AB1BEF00F01DEF00F021EF90
:1000380000F0339B0001884B892B4C921100C8EFCC
:0200480013F0B3
:100E000000002A50D96EDA6A040ED926010EDB5092
:100E100009E1120EDE5CD8A010EF07F012EF07F028
:100E200021EF07F02CC01CF02DC01DF0000E1F6E2E
:100E3000100E1E6E000E206E8CEC09F0020EFAEF02
:100E400007F02A50D96EDA6A040ED926010EDB505B
:100E500009E10D0EDE5CD8A030EF07F032EF07F0AD
:100E600044EF07F02A50D96EDA6A010EDB5007E131
:100E7000320EDE5CD8B03FEF07F041EF07F044EFF1
:100E800007F0060EFAEF07F02A50D96EDA6A020E62
:100E9000D926010EDB5007E1160EDE5CD8B053EF09
:100EA00007F055EF07F058EF07F0000EFAEF07F0E4
:100EB00031EC15F0520E2F6E2B0E2E6E000EE82E1A
:100EC000FED72E2EFCD72F2EFAD700D02CC01CF028
:100ED0002DC01DF0000E1F6E080E1E6E010E206E3E
:100EE0008CEC09F02BC00EF0CCEC0FF02BC010F006
:100EF0002AC011F0A0EC0BF02CC01CF02DC01DF08E
:100F0000000E1F6E100E1E6E000E206E8CEC09F08F
:100F10002A50D96EDA6A060ED926DE52030EDE5C3E
:100F2000D8B095EF07F097EF07F09AEF07F0080EAB
:100F3000FAEF07F02A50D96EDA6A020ED926010EAE
:100F4000DB5009E1310EDE5CD8A0A9EF07F0ABEF72
:100F500007F0AEEF07F0010EFAEF07F02A50D96E56
:100F6000DA6A010EDB5009E13D0EDE5CD8A0BBEF72
:100F700007F0BDEF07F0D1EF07F02A50D96EDA6A1B
:100F8000020ED926010EDB5007E11E0EDE5CD8B042
:100F9000CCEF07F0CEEF07F0D1EF07F0050EFAEF38
:100FA00007F02A50D96EDA6A040ED926010EDB50FA
:100FB00007E1070EDE5CD8B0E0EF07F0E2EF07F0E4
:100FC000E5EF07F0030EFAEF07F02A50D96EDA6A60
:100FD000020ED926010EDB5009E1230EDE5CD8A0FB
:100FE000F4EF07F0F6EF07F0F9EF07F0070EFAEF6E
:100FF00007F0040E120014EC14F0D3EC14F027ECFC
:1010000015F010EC15F0DFEC12F0ADEC14F0000E62
:10101000046E630E036EF7EC11F0000E0001A76F73
:10102000010EA86F010EA96F000EAB6F630EAA6FC1
:10103000AA0EAC6F0F0EAD6FA60EAE6F0F0EAF6F98
:10104000A70E106EF6EC0AF0000E00019E6F010E66
:101050009F6F010EA06F000EA26F630EA16F250E91
:10106000A36F0F0EA46F210EA56F0F0EA66F9E0E1D
:10107000106EF6EC0AF0A70E276E9E0E286E40EC5E
:1010800011F04B6E31EC15F0520E406E2B0E3F6E90
:10109000000EE82EFED73F2EFCD7402EFAD700D008
:1010A0008EB455EF08F057EF08F050EF08F0000E3F
:1010B0000001896F000E886F00018C51D8B463EF76
:1010C00008F065EF08F0ABEF08F0A70E156E9E0E66
:1010D000166E75EC12F0960E0E6ECCEC0FF0960EAE
:1010E000106E8E0E116EA0EC0BF08E0E2A6E960E08
:1010F0002B6EA70E2C6E9E0E2D6E01EC07F00001DC
:101100008D6F8D51A3EC11F000018B51020DF35046
:10111000600FD96EDA6A8DC0DFFF8B51020DF3507C
:10112000610FD96EDA6A88C0DFFF8B2BA70E2A6E9B
:101130009E0E2B6E8DC02CF04AEC0AF031EC15F0AF
:10114000000E0001896F000E886F000E8C6FBDECE1
:1011500014F0F28E7C9E00018A51D8B4B2EF08F0F0
:10116000B4EF08F0BAEF08F0A70E2F6E9E0E306EA7
:10117000DCEC10F08EB6BFEF08F0C1EF08F0C4EF62
:1011800008F0010E00018A6FA70E156E9E0E166EF6
:1011900055EC10F05CEF08F023EF00F01C50D96E16
:1011A000DA6ADF50D8A4D7EF08F0D9EF08F0E4EFFF
:1011B00008F01D50D96EDA6ADF50D8B4E2EF08F0BB
:1011C000E4EF08F0EAEF08F01CC015F01DC016F0BF
:1011D000AAEC12F0000E0001896F000E886F1C50FF
:1011E000D96EDA6A010ED926010EDF6E1D50D96E56
:1011F000DA6A010ED926010EDF6E1C50D96EDA6A4A
:10120000DF50276E0A0E286E0A0E27600AEF09F0DB
:101210000CEF09F041EF09F027C023F0246A2DEF0D
:1012200009F01C50D96EDA6A23C0DFFF1D50D96E59
:10123000DA6A23C0DFFF1CC010F0F6EC0AF01DC014
:1012400010F0F6EC0AF0680E206EE40EE82EFED7E1
:10125000202EFCD700D0234A242A2850206E216A51
:101260002350205C2150800A226E2450800A22588C
:10127000D8B03DEF09F03FEF09F011EF09F075EF3D
:1012800009F027C025F0266A63EF09F01C50D96EDB
:10129000DA6A25C0DFFF1D50D96EDA6A25C0DFFF8C
:1012A0001CC010F0F6EC0AF01DC010F0F6EC0AF0CD
:1012B000680E206EE40EE82EFED7202EFCD700D05C
:1012C0002506D8A026062850206E216A2050255CCD
:1012D0002650800A226E2150800A2258D8B073EF1F
:1012E00009F075EF09F046EF09F01E500001885D26
:1012F0008951800A206E1F50800A2058D8A083EFA1
:1013000009F085EF09F075EF09F01CC015F01DC05C
:1013100016F0AAEC12F012001C50D96EDA6ADF50F7
:10132000D8A495EF09F097EF09F0A2EF09F01D504E
:10133000D96EDA6ADF50D8B4A0EF09F0A2EF09F055
:10134000A8EF09F01CC015F01DC016F0AAEC12F0B1
:10135000000E0001896F000E886F1C50D96EDA6A8A
:10136000010ED92620C0DFFF1D50D96EDA6A010EAA
:10137000D92620C0DFFF1C50D96EDA6ADF50286EF4
:101380000A0E296E0A0E2860C8EF09F0CAEF09F0AC
:10139000FFEF09F028C024F0256AEBEF09F01C509C
:1013A000D96EDA6A24C0DFFF1D50D96EDA6A24C014
:1013B000DFFF1CC010F0F6EC0AF01DC010F0F6ECD8
:1013C0000AF0680E216EE40EE82EFED7212EFCD71F
:1013D00000D0244A252A2950216E226A2450215CFB
:1013E0002250800A236E2550800A2358D8B0FBEF84
:1013F00009F0FDEF09F0CFEF09F033EF0AF028C054
:1014000026F0276A21EF0AF01C50D96EDA6A26C04E
:10141000DFFF1D50D96EDA6A26C0DFFF1CC010F056
:10142000F6EC0AF01DC010F0F6EC0AF0680E216E22
:10143000E40EE82EFED7212EFCD700D02606D8A039
:1014400027062950216E226A2150265C2750800AE7
:10145000236E2250800A2358D8B031EF0AF033EFC0
:101460000AF004EF0AF01E500001885D8951800ADD
:10147000216E1F50800A2158D8A041EF0AF043EF97
:101480000AF033EF0AF01CC015F01DC016F0AAECEC
:1014900012F01200B4EF0AF02AC026F02BC027F099
:1014A000F4EC14F0F5EF0AF02AC027F02BC028F076
:1014B000DDEC14F0F5EF0AF02AC026F02BC027F07F
:1014C00009EC15F0F5EF0AF02AC028F02BC029F03E
:1014D0008CEC14F0F5EF0AF02AC028F02BC029F0AC
:1014E00066EC14F0F5EF0AF02AC026F02BC027F0C6
:1014F000FBEC14F0F5EF0AF02AC026F02BC027F021
:1015000002EC15F0F5EF0AF02AC003F02BC004F04E
:101510004FEC15F0F5EF0AF02AC003F02BC004F0F1
:1015200053EC15F0F5EF0AF02AC028F02BC029F093
:10153000E4EC13F0F5EF0AF02AC028F02BC029F0F4
:10154000FDEC13F0F5EF0AF02AC026F02BC027F0CF
:10155000E6EC14F0F5EF0AF02AC026F02BC027F0D5
:10156000EDEC14F0F5EF0AF02C502D6E2E6A2E5093
:10157000000AD8B4BEEF0AF0F5EF0AF02D50000AC9
:10158000D8B44CEF0AF0010AD8B454EF0AF0030AB9
:10159000D8B45CEF0AF0010AD8B464EF0AF0070A85
:1015A000D8B46CEF0AF0010AD8B474EF0AF0030A59
:1015B000D8B47CEF0AF0010AD8B484EF0AF00F0A1D
:1015C000D8B48CEF0AF0010AD8B494EF0AF0030AF9
:1015D000D8B49CEF0AF0010AD8B4A4EF0AF0070AC5
:1015E000D8B4ACEF0AF0F5EF0AF012001050D96E43
:1015F000DA6A020ED926DF50D8B401EF0BF003EF00
:101600000BF033EF0BF01050D96EDA6ADF50116E29
:101610001150036E046A1050D96EDA6A030ED9268F
:10162000DECF05F0DDCF06F079EC14F003C009F051
:1016300004C00AF0000E0C6E640E0B6E3BEC12F050
:101640001050D96EDA6A030ED926DF50126E095097
:10165000125C136E1050D96EDA6A030ED926DF5071
:10166000146E54EF0BF0000E136E1050D96EDA6A40
:10167000DF50116E1150036E046A1050D96EDA6A91
:10168000030ED926DECF05F0DDCF06F079EC14F09D
:1016900003C009F004C00AF0000E0C6E640E0B6E5D
:1016A0003BEC12F00950146E1050D96EDA6A010E3C
:1016B000D926DF50D8B45FEF0BF061EF0BF081EF6C
:1016C0000BF01050D96EDA6A050ED926DECF11F074
:1016D000DDCF12F011C0D9FF12C0DAFF13C0DFFF57
:1016E0001050D96EDA6A070ED926DECF11F0DDCFA1
:1016F00012F011C0D9FF12C0DAFF14C0DFFF9FEF54
:101700000BF01050D96EDA6A050ED926DECF11F033
:10171000DDCF12F011C0D9FF12C0DAFF14C0DFFF15
:101720001050D96EDA6A070ED926DECF11F0DDCF60
:1017300012F011C0D9FF12C0DAFF13C0DFFF120090
:101740001050D96EDA6A040ED926DECF12F0DDCF42
:1017500013F01050D96EDA6A020ED926DECF14F0DB
:10176000DDCF15F01050D96EDA6ADECF16F0DDCF7E
:1017700017F014501624186E15501720196E1250B9
:1017800018241A6E135019201B6E000E0C6E640E76
:101790000B6E1AC009F01BC00AF03BEC12F009C036
:1017A0001CF00AC01DF01050D96EDA6ADECF09F0C5
:1017B000DDCF0AF01CC00BF01DC00CF03BEC12F0AA
:1017C0001150D96EDA6A09C0DEFF0AC0DDFF000ED3
:1017D0000C6E640E0B6E1AC009F01BC00AF03BECD5
:1017E00012F009C01CF00AC01DF01050D96EDA6A60
:1017F000020ED926DECF09F0DDCF0AF01CC00BF0B7
:101800001DC00CF03BEC12F01150D96EDA6A020EDA
:10181000D92609C0DEFF0AC0DDFF000E0C6E640E83
:101820000B6E1AC009F01BC00AF03BEC12F009C0A5
:101830001CF00AC01DF01050D96EDA6A040ED926C9
:10184000DECF09F0DDCF0AF01CC00BF01DC00CF09C
:101850003BEC12F01150D96EDA6A040ED92609C099
:10186000DEFF0AC0DDFF1050D96EDA6A060ED926F7
:101870001150E16EE26A060EE126DECFE6FFDDCF13
:10188000E5FF12001C50D96EDA6ADF50D8A44BEF86
:101890000CF04DEF0CF058EF0CF01D50D96EDA6AD9
:1018A000DF50D8B456EF0CF058EF0CF05EEF0CF0B0
:1018B0001CC015F01DC016F0AAEC12F01C50D96E19
:1018C000DA6A010ED926010EDF6E1D50D96EDA6A72
:1018D000010ED926DF6A000E216E1C0E206E000E4E
:1018E000236E000E226E95EF0CF01C50D96EDA6A52
:1018F00022C0DFFF1D50D96EDA6A22C0DFFF1CC094
:1019000010F0F6EC0AF01DC010F0F6EC0AF0020E32
:101910001F6E380E1E6EAD0EE82EFED71E2EFCD7A3
:101920001F2EFAD70000224A232A2050225C23507F
:10193000800A1E6E2150800A1E58D8A0A2EF0CF01B
:10194000A4EF0CF075EF0CF0150E1F6E4B0E1E6E13
:10195000BE0EE82EFED71E2EFCD71F2EFAD700D0C3
:1019600020C024F021C025F025BEBBEF0CF0B9EF5C
:101970000CF0BDEF0CF0DCEF0CF01C50D96EDA6A05
:1019800024C0DFFF1D50D96EDA6A24C0DFFF1CC0FF
:1019900010F0F6EC0AF01DC010F0F6EC0AF0680E3C
:1019A0001E6EE40EE82EFED71E2EFCD700D02406B5
:1019B000D8A02506B4EF0CF012001C50D96EDA6ADC
:1019C000DF50D8A4E6EF0CF0E8EF0CF0F3EF0CF0EA
:1019D0001D50D96EDA6ADF50D8B4F1EF0CF0F3EF96
:1019E0000CF0F9EF0CF01CC015F01DC016F0AAECBD
:1019F00012F01C50D96EDA6A010ED926DF6A1D502A
:101A0000D96EDA6A010ED926010EDF6E1EC021F0F2
:101A1000226A000E246E000E236E2FEF0DF01C5074
:101A2000D96EDA6A23C0DFFF1D50D96EDA6A23C08F
:101A3000DFFF1CC010F0F6EC0AF01DC010F0F6EC51
:101A40000AF0020E206E380E1F6EAD0EE82EFED785
:101A50001F2EFCD7202EFAD70000234A242A21501B
:101A6000235C2450800A1F6E2250800A1F58D8A081
:101A70003CEF0DF03EEF0DF00FEF0DF0170E206E66
:101A8000BB0E1F6E1D0EE82EFED71F2EFCD7202E7C
:101A9000FAD7000021C025F022C026F026BE55EF5F
:101AA0000DF053EF0DF057EF0DF076EF0DF01C50E9
:101AB000D96EDA6A25C0DFFF1D50D96EDA6A25C0FB
:101AC000DFFF1CC010F0F6EC0AF01DC010F0F6ECC1
:101AD0000AF0680E1F6EE40EE82EFED71F2EFCD70C
:101AE00000D02506D8A026064EEF0DF012001C509F
:101AF000D96EDA6ADF50D8A480EF0DF082EF0DF0D6
:101B00008DEF0DF01D50D96EDA6ADF50D8B48BEF2F
:101B10000DF08DEF0DF093EF0DF01CC015F01DC012
:101B200016F0AAEC12F01C50D96EDA6A010ED92612
:101B3000010EDF6E1D50D96EDA6A010ED926DF6AFA
:101B4000000E216E280E206E000E236E000E226EF7
:101B5000C6EF0DF01C50D96EDA6A22C0DFFF1D50AF
:101B6000D96EDA6A22C0DFFF1CC010F0F6EC0AF072
:101B70001DC010F0F6EC0AF0680E1E6EE40EE82EA2
:101B8000FED71E2EFCD700D0224A232A2050225CEA
:101B90002350800A1E6E2150800A1E58D8A0D3EF11
:101BA0000DF0D5EF0DF0AAEF0DF0220E1F6E480ECE
:101BB0001E6E620EE82EFED71E2EFCD71F2EFAD701
:101BC00000D020C024F021C025F025BEECEF0DF0A0
:101BD000EAEF0DF0EEEF0DF00DEF0EF01C50D96EA8
:101BE000DA6A24C0DFFF1D50D96EDA6A24C0DFFF35
:101BF0001CC010F0F6EC0AF01DC010F0F6EC0AF074
:101C0000680E1E6EE40EE82EFED71E2EFCD700D006
:101C10002406D8A02506E5EF0DF012001C50D96E61
:101C2000DA6ADF50D8A417EF0EF019EF0EF024EFA8
:101C30000EF01D50D96EDA6ADF50D8B422EF0EF0E4
:101C400024EF0EF02AEF0EF01CC015F01DC016F0A8
:101C5000AAEC12F01C50D96EDA6A010ED926DF6A9E
:101C60001D50D96EDA6A010ED926010EDF6E000E04
:101C7000216E280E206E000E236E000E226E5DEF88
:101C80000EF01C50D96EDA6A22C0DFFF1D50D96EEB
:101C9000DA6A22C0DFFF1CC010F0F6EC0AF01DC0AB
:101CA00010F0F6EC0AF0680E1E6EE40EE82EFED779
:101CB0001E2EFCD700D0224A232A2050225C23501B
:101CC000800A1E6E2150800A1E58D8A06AEF0EF0BE
:101CD0006CEF0EF041EF0EF0220E1F6E480E1E6EDE
:101CE000620EE82EFED71E2EFCD71F2EFAD700D08C
:101CF00020C024F021C025F025BE83EF0EF081EF37
:101D00000EF085EF0EF0A4EF0EF01C50D96EDA6ADB
:101D100024C0DFFF1D50D96EDA6A24C0DFFF1CC06B
:101D200010F0F6EC0AF01DC010F0F6EC0AF0680EA8
:101D30001E6EE40EE82EFED71E2EFCD700D0240621
:101D4000D8A025067CEF0EF012001C50D96EDA6A7E
:101D5000DF50D8A4AEEF0EF0B0EF0EF0BBEF0EF0F8
:101D60001D50D96EDA6ADF50D8B4B9EF0EF0BBEF70
:101D70000EF0C1EF0EF01CC015F01DC016F0AAEC5D
:101D800012F01C50D96EDA6A010ED926DF6A1D5096
:101D9000D96EDA6A010ED926010EDF6E000E216EB1
:101DA000280E206E000E236E000E226EF4EF0EF051
:101DB0001C50D96EDA6A22C0DFFF1D50D96EDA6A74
:101DC00022C0DFFF1CC010F0F6EC0AF01DC010F0BE
:101DD000F6EC0AF0680E1E6EE40EE82EFED71E2EFC
:101DE000FCD700D0224A232A2050225C2350800AAC
:101DF0001E6E2150800A1E58D8A001EF0FF003EF8D
:101E00000FF0D8EF0EF0290E1F6E960E1E6E7F0E8D
:101E1000E82EFED71E2EFCD71F2EFAD7000020C0BA
:101E200024F021C025F025BE1AEF0FF018EF0FF0B7
:101E30001CEF0FF03BEF0FF01C50D96EDA6A24C094
:101E4000DFFF1D50D96EDA6A24C0DFFF1CC010F01E
:101E5000F6EC0AF01DC010F0F6EC0AF0680E1E6EEB
:101E6000E40EE82EFED71E2EFCD700D02406D8A004
:101E7000250613EF0FF012001C50D96EDA6ADF50FE
:101E8000D8A445EF0FF047EF0FF052EF0FF01D50C1
:101E9000D96EDA6ADF50D8B450EF0FF052EF0FF07E
:101EA00058EF0FF01CC015F01DC016F0AAEC12F090
:101EB0001F04D8A45EEF0FF060EF0FF06EEF0FF08D
:101EC0001C50D96EDA6A010ED926DF6A1D50D96E10
:101ED000DA6A010ED926DF6A7CEF0FF01C50D96E4A
:101EE000DA6A010ED926010EDF6E1D50D96EDA6A4C
:101EF000010ED926010EDF6E000E276E000E266E33
:101F00001C50D96EDA6A26C0DFFF1D50D96EDA6A1E
:101F100026C0DFFF1CC010F0F6EC0AF01DC010F068
:101F2000F6EC0AF0680E206EE40EE82EFED7202EA6
:101F3000FCD700D0264A272A27BEA8EF0FF027504B
:101F400009E1150E265CD8A0A8EF0FF0AAEF0FF05C
:101F500080EF0FF088C025F01E50206E216A2550BA
:101F60000001885D226E000E8959236E2050225C8C
:101F70002350800A246E2150800A2458D8A0C3EF31
:101F80000FF0C5EF0FF0ACEF0FF01CC015F01DC047
:101F900016F0AAEC12F0120031EC15F057EC13F029
:101FA0000E50D96EDA6A060ED92607C0DEFF08C0C9
:101FB000DDFF090E106E1E0E0F6EE40EE82EFED72A
:101FC0000F2EFCD7102EFAD700D036EC15F07F80FC
:101FD000090E106E1E0E0F6EE40EE82EFED70F2EA9
:101FE000FCD7102EFAD700D007EC13F00E50D96EA4
:101FF000DA6A07C0DEFF08C0DDFF090E106E1E0E94
:102000000F6EE40EE82EFED70F2EFCD7102EFAD757
:1020100000D07F907D8E090E106E1E0E0F6EE40EA6
:10202000E82EFED70F2EFCD7102EFAD700D02FECBB
:1020300013F00E50D96EDA6A020ED92607C0DEFF01
:1020400008C0DDFF090E106E1E0E0F6EE40EE82EA6
:10205000FED70F2EFCD7102EFAD700D07D9E7986A2
:10206000090E106E1E0E0F6EE40EE82EFED70F2E18
:10207000FCD7102EFAD700D07FEC13F00E50D96E9B
:10208000DA6A040ED92607C0DEFF08C0DDFF090E9C
:10209000106E1E0E0F6EE40EE82EFED70F2EFCD72C
:1020A000102EFAD700D0799612001550D96EDA6A40
:1020B000010ED926010EDF6E1650D96EDA6A010EB6
:1020C000D926010EDF6E1550D96EDA6ADF501E6E0A
:1020D0000C0E1F6E0C0E1E6070EF10F072EF10F001
:1020E000A7EF10F01EC01AF01B6A93EF10F0155006
:1020F000D96EDA6A1AC0DFFF1650D96EDA6A1AC0D2
:10210000DFFF15C010F0F6EC0AF016C010F0F6EC88
:102110000AF0680E176EE40EE82EFED7172EFCD7D5
:1021200000D01A4A1B2A1F50176E186A1A50175CE3
:102130001850800A196E1B50800A1958D8B0A3EFA6
:1021400010F0A5EF10F077EF10F0DBEF10F01EC0ED
:102150001CF01D6AC9EF10F01550D96EDA6A1CC068
:10216000DFFF1650D96EDA6A1CC0DFFF15C010F011
:10217000F6EC0AF016C010F0F6EC0AF0680E176ED6
:10218000E40EE82EFED7172EFCD700D01C06D8A0F0
:102190001D061F50176E186A17501C5C1D50800AD0
:1021A000196E1850800A1958D8B0D9EF10F0DBEF2B
:1021B00010F0ACEF10F0120088C03BF089C03CF08A
:1021C0002FC01CF030C01DF0A5EC0EF02FC01CF08D
:1021D00030C01DF03BC01EF03CC01FF0CEEC08F03C
:1021E00020EE41F010EE32F0080EDBCFE3FFE80600
:1021F000FCE28BC03DF03E6A3EBE03EF11F001EF02
:1022000011F005EF11F02FEF11F02FC02AF030C0C0
:102210002BF03D50020DF350600FD96EDA6ADF509B
:10222000316E3150320FD96EDA6ADF502C6E4AECC3
:102230000AF02FC01CF030C01DF03D50020DF350CD
:10224000610FD96EDA6ADF50316E31501E6E1F6A2F
:10225000CEEC08F03D06D8A03E06FCEF10F02FC0F3
:1022600015F030C016F0AAEC12F0000E00018B6FD2
:102270008EB43DEF11F03FEF11F038EF11F0120086
:102280008EB445EF11F047EF11F040EF11F01A0E48
:102290002B6E93EF11F0520E2A6E2B0E296E000E4C
:1022A000E82EFED7292EFCD72A2EFAD700D027C039
:1022B0001CF028C01DF02BC01EF0DDEC0CF08EA42D
:1022C00064EF11F066EF11F06DEF11F08EB66BEF69
:1022D00011F06DEF11F05FEF11F0070E2A6E7F0E17
:1022E000296E500EE82EFED7292EFCD72A2EFAD7BB
:1022F0008EB47DEF11F07FEF11F088EF11F08EB604
:1023000084EF11F086EF11F088EF11F093EF11F0E8
:102310008EB48DEF11F08FEF11F092EF11F02B06CC
:1023200093EF11F02B2A8EB498EF11F09AEF11F081
:102330004BEF11F08EB69FEF11F0A1EF11F04BEFC4
:1023400011F02B501200066E000E0A6E000E096E80
:10235000000E086E000E076EC8EF11F080860D0E9D
:10236000046E2D0E036ED80EE82EFED7032EFCD77A
:10237000042EFAD780960D0E046E2D0E036ED80E25
:10238000E82EFED7032EFCD7042EFAD7074A082AD8
:102390000650036E046A0350075C0850800A056EFD
:1023A0000450800A0558D8A0D8EF11F0DAEF11F0E8
:1023B000AEEF11F0290E046E960E036E7F0EE82E1E
:1023C000FED7032EFCD7042EFAD70000094A0A2AAA
:1023D0000ABEF4EF11F00A5009E1020E095CD8A020
:1023E000F4EF11F0F6EF11F0A8EF11F01200859460
:1023F0008598839E879C050E0E01746F060E766F7E
:10240000070E696F080E886FBD508F0B4009BD6EB7
:10241000E00EBE16BF50F00B0109BF6E03C0BCFF3B
:10242000BD8E000EAA6E000EA66E000E0F01256F67
:10243000000E216FFC0EAD16F30EAD16CF0EAD16CD
:102440003F0EAD16AB88AB50F00B0C09AB6EAB8EEC
:10245000A788A750F00B0C09A76EA78E26892651D6
:10246000F00B0C09266F268F22892251F00B0C09E4
:10247000226F228F1200000E0E6E000E0D6E0B509A
:102480000C10D8B446EF12F048EF12F070EF12F0D3
:10249000010E0F6E50EF12F0D8900B360C360F2A4B
:1024A0000CAE55EF12F057EF12F04CEF12F0D8903F
:1024B0000D360E360B50095C0C500A58D8A063EF4D
:1024C00012F065EF12F06AEF12F00B50095E0C503B
:1024D0000A5A0D80D8900C320B320F2E57EF12F0A3
:1024E0000DC009F00EC00AF012001550D96EDA6A5C
:1024F000DF50176E1750186E196A18C01AF019C0FD
:102500001BF01BBE88EF12F086EF12F08AEF12F07C
:10251000A9EF12F01550D96EDA6A1AC0DFFF165013
:10252000D96EDA6A1AC0DFFF15C010F0F6EC0AF0B7
:1025300016C010F0F6EC0AF0150E176EC60EE82E57
:10254000FED7172EFCD700D01A06D8A01B0681EFA5
:1025500012F012001550D96EDA6ADF50176E17505C
:10256000186E196A18C01AF019C01BF01BBEBDEF17
:1025700012F0BBEF12F0BFEF12F0DEEF12F01550C9
:10258000D96EDA6A1AC0DFFF1650D96EDA6A1AC03D
:10259000DFFF15C010F0F6EC0AF016C010F0F6ECF4
:1025A0000AF0680E176EE40EE82EFED7172EFCD741
:1025B00000D01A06D8A01B06B6EF12F01200080EC3
:1025C0000D01F06F0E012981F2901F919A91000E7A
:1025D000056E040E9DEC14F0010E056E050E9DECCB
:1025E00014F0000E056E060E9DEC14F0020E056E42
:1025F000070E9DEC14F0030E056E0C0E9DEC14F00E
:102600000E01298BF28CBDEC14F0F28E120040EC1E
:1026100015F0520E16EC15F0B60E16EC15F02CEC6B
:1026200015F0530E16EC15F0010EA7EC13F0096E21
:1026300009500C6E0D6A000EA7EC13F0096E0950DC
:102640000B6E0A6A0C500A100C6E0D500B100D6EBA
:102650003BEC15F00CC007F00DC008F0120040EC88
:1026600015F0520E16EC15F0B80E16EC15F02CEC19
:1026700015F0530E16EC15F0010EA7EC13F0096ED1
:1026800009500C6E0D6A000EA7EC13F0096E09508C
:102690000B6E0A6A0C500A100C6E0D500B100D6E6A
:1026A0003BEC15F00CC007F00DC008F0120040EC38
:1026B00015F0520E16EC15F0B40E16EC15F02CECCD
:1026C00015F0530E16EC15F0010EA7EC13F0096E81
:1026D00009500C6E0D6A000EA7EC13F0096E09503C
:1026E0000B6E0A6A0C500A100C6E0D500B100D6E1A
:1026F0003BEC15F00CC007F00DC008F0120040ECE8
:1027000015F0520E16EC15F0BA0E16EC15F02CEC76
:1027100015F0530E16EC15F0010EA7EC13F0096E30
:1027200009500C6E0D6A000EA7EC13F0096E0950EB
:102730000B6E0A6A0C500A100C6E0D500B100D6EC9
:102740003BEC15F00CC007F00DC008F01200056E50
:102750003EEC14F00E01DA873EEC14F0D5CE06F014
:102760003EEC14F00550D8B4B8EF13F0BCEF13F002
:10277000046A042ABDEF13F0046A043A04460E0109
:10278000DA510418DF0B0418DA6FDA8906501200E8
:10279000440EF66E2A0EF76E000EF86E00EE41F053
:1027A00010EE0AF00900F5CFEEFFE550E150FAE136
:1027B00000EE60F02D0EEE6AE806FDE14B6A4C90EB
:1027C0004C920001FBEF07F028C01CF029C01DF05F
:1027D0004BC01EF0DDEC0CF028C01CF029C01DF031
:1027E000100E1E6E000E1F6E3CEC0FF028C01CF089
:1027F00029C01DF0A5EC0EF0120028C01CF029C065
:102800001DF042EC0CF028C01CF029C01DF0100E89
:102810001E6E000E1F6E3CEC0FF028C01CF029C08D
:102820001DF0A5EC0EF0120029EC14F0F60E056E6A
:10283000010E9DEC14F0130E056E000E9DEC14F0CD
:102840003F0E076E550EE82EFED7072EFCD7000070
:1028500012000E01D951F00B0809D96FD98B9F0EC8
:10286000D66F848A848CA79BA79D1D0E1D6F1E0E9C
:102870001C6F1C0E6F6F1B0E706F12000E01D8B50F
:1028800044EF14F046EF14F03EEF14F0DACE03F00C
:102890001F0E0316D8A44FEF14F051EF14F03EEFC3
:1028A00014F012000E01D8B558EF14F05AEF14F0DE
:1028B00052EF14F0DACE01F01F0E0116D8A463EF28
:1028C00014F065EF14F052EF14F0120028C01CF061
:1028D00029C01DF0100E1E6E010E1F6E3CEC0FF095
:1028E00028C01CF029C01DF04BC01EF0DDEC0CF020
:1028F000120003500502F3CF07F0F4CF08F00350A5
:102900000602F350082604500502F350082607C0BB
:1029100003F008C004F0120028C01CF029C01DF00C
:10292000100E1E6E010E1F6E3CEC0FF028C01CF046
:1029300029C01DF042EC0CF01200066E40EC15F0C0
:10294000520E16EC15F00650800916EC15F00550E5
:1029500016EC15F03BEC15F01200D6501F0B400999
:10296000D66ED688D650F00B0509D66ED588000EE7
:10297000D46E000ED36ED58E120040EC15F0520EC0
:1029800016EC15F0E60E16EC15F03BEC15F0120007
:102990004AEC15F0520E1CEC15F0E60E1CEC15F08E
:1029A00045EC15F012008790859E8196849688925A
:1029B00084987F907D9E7996120027C01CF028C0D5
:1029C0001DF04BC01EF0DDEC0CF0120026C01CF018
:1029D00027C01DF077EC0DF0120026C01CF027C0B8
:1029E0001DF00EEC0EF0120026C01CF027C01DF0EA
:1029F00042EC0CF0120026C01CF027C01DF077EC52
:102A00000DF0120026C01CF027C01DF00EEC0EF0D9
:102A1000120026C01CF027C01DF0A5EC0EF012001D
:102A200086840E01B4958686B4971200046E3EEC3F
:102A300014F004C0D5FE1200026E52EC14F002C075
:102A4000D5FE1200010002090A0B0CFFFF10849E44
:102A50007C9E8896809612003EEC14F00E01DA837C
:102A600012007C867F807D8E798612007C967F9016
:102A70007D9E799612003EEC14F00E01DA8512006C
:102A80003EEC14F00E01DA81120052EC14F00E014B
:102A9000DA85120052EC14F00E01DA811200010EF8
:082AA00000018A6F1200120010
:020000040030CA
:02000000AAFF55
:020004009FFF5C
:00000001FF
