:040000002CEF00F0F1
:10000800198255EC08F005A80CEF00F00EEF00F08F
:100018002AEF00F07C8E520E0B6E2B0E0A6E000E2D
:10002800E82EFED70A2EFCD70B2EFAD700D07C9EDE
:10003800520E0B6E2B0E0A6E000EE82EFED70A2EFD
:10004800FCD70B2EFAD700D0DDEC08F0199211007E
:04005800E9EF08F0D4
:100E000000003BEC07F0CDEC08F0849E7C8EFDECFE
:100E100008F0520E186E2B0E176E000EE82EFED73D
:100E2000172EFCD7182EFAD700D073EC07F09BECE6
:100E300007F0EBEC07F0C3EC07F002EC09F0520E00
:100E4000186E2B0E176E000EE82EFED7172EFCD74D
:100E5000182EFAD700D0520E186E2B0E176E000EF9
:100E6000E82EFED7172EFCD7182EFAD700D006EFA3
:100E700007F02CEF00F070EC08F0010E0E6E000E83
:100E8000ADEC08F03F0E106E550EE82EFED7102E7A
:100E9000FCD70000030E0E6E000EADEC08F0D50E70
:100EA0000E6E010EADEC08F0110E0E6E000EADECE4
:100EB00008F0000E0E6E040EADEC08F0010E0E6E82
:100EC000050EADEC08F0D60E0E6E060EADEC08F079
:100ED000060E0E6E070EADEC08F0010E0E6E0C0E37
:100EE000ADEC08F01200F8EC08F0520ED7EC08F068
:100EF000B60ED7EC08F0EEEC08F0530ED7EC08F085
:100F0000010E13EC08F0126E1250156E166A000EE8
:100F100013EC08F0126E1250146E136A1550131071
:100F2000156E16501410166EF3EC08F015C010F084
:100F300016C011F01200F8EC08F0520ED7EC08F0D1
:100F4000B80ED7EC08F0EEEC08F0530ED7EC08F032
:100F5000010E13EC08F0126E1250156E166A000E98
:100F600013EC08F0126E1250146E136A1550131021
:100F7000156E16501410166EF3EC08F015C010F034
:100F800016C011F01200F8EC08F0520ED7EC08F081
:100F9000B40ED7EC08F0EEEC08F0530ED7EC08F0E6
:100FA000010E13EC08F0126E1250156E166A000E48
:100FB00013EC08F0126E1250146E136A15501310D1
:100FC000156E16501410166EF3EC08F015C010F0E4
:100FD00016C011F01200F8EC08F0520ED7EC08F031
:100FE000BA0ED7EC08F0EEEC08F0530ED7EC08F090
:100FF000010E13EC08F0126E1250156E166A000EF8
:1010000013EC08F0126E1250146E136A1550131080
:10101000156E16501410166EF3EC08F015C010F093
:1010200016C011F012000E6E85EC08F00E01DA8782
:1010300085EC08F0D5CE0FF085EC08F00E50D8B452
:1010400024EF08F028EF08F00D6A0D2A29EF08F0C8
:101050000D6A0D3A0D460E01DA510D18DF0B0D1811
:10106000DA6FDA890F501200036E99EC08F00E0166
:10107000DA8799EC08F0D5CE04F099EC08F003502B
:10108000D8B445EF08F049EF08F0026A022A4AEFA7
:1010900008F0026A023A02460E01DA510218DF0B2A
:1010A0000218DA6FDA890450120011EC09F0520EBE
:1010B000E3EC08F0930EE3EC08F007EC09F0530EB4
:1010C000E3EC08F0010E34EC08F0076E0750086EF0
:1010D000096A0CEC09F008C005F009C006F012001E
:1010E0000E01D951F00B0809D96FD98B9F0ED66F1D
:1010F000848A848CA79BA79D1D0E1D6F1E0E1C6FDE
:101100001C0E6F6F1B0E706F12000E01D8B58BEFA7
:1011100008F08DEF08F085EF08F0DACE0CF01F0E26
:101120000C16D8A496EF08F098EF08F085EF08F0B9
:1011300012000E01D8B59FEF08F0A1EF08F099EF6B
:1011400008F0DACE01F01F0E0116D8A4AAEF08F0BD
:10115000ACEF08F099EF08F012000F6EF8EC08F011
:10116000520ED7EC08F00F508009D7EC08F00E5063
:10117000D7EC08F0F3EC08F01200046E11EC09F063
:10118000520EE3EC08F004508009E3EC08F0035041
:10119000E3EC08F00CEC09F012008790859E819634
:1011A0008496889284987F907D9E799612000D6E29
:1011B00085EC08F00DC0D5FE1200000E036E130E74
:1011C000BDEC08F01200026E99EC08F002C0D5FEEA
:1011D000120019901992000101EF07F085EC08F058
:1011E0000E01DA83120085EC08F00E01DA85120098
:1011F00085EC08F00E01DA8112007C867F807D8EFE
:10120000798612007C967F907D9E7996120099ECEB
:1012100008F00E01DA83120099EC08F00E01DA856D
:0C122000120099EC08F00E01DA811200B7
:020000040030CA
:02000000AAFF55
:020004009FFF5C
:00000001FF
