:0400000023EF00F0FA
:100008004E820E0133A10BEF00F00DEF00F016EF5A
:1000180000F07C8E010E00018C6F66EC15F00E016D
:100028003391F29E33AB1BEF00F01DEF00F021EF90
:1000380000F0339B0001884B892B4E92110063EF2F
:0200480014F0B2
:100E000000002A50D96EDA6A040ED926010EDB5092
:100E100009E1120EDE5CD8A010EF07F012EF07F028
:100E200021EF07F02CC01CF02DC01DF0000E1F6E2E
:100E3000100E1E6E000E206EEFEC08F0020E12EF88
:100E400008F02A50D96EDA6A040ED926010EDB505A
:100E500009E10D0EDE5CD8A030EF07F032EF07F0AD
:100E600050EF07F02A50D96EDA6A010EDB5007E125
:100E7000320EDE5CD8B03FEF07F041EF07F050EFE5
:100E800007F02CC01CF02DC01DF0000E1F6E100EC0
:100E90001E6E000E206EEFEC08F0060E12EF08F04A
:100EA0002A50D96EDA6A020ED926010EDB5007E10C
:100EB000160EDE5CD8B05FEF07F061EF07F070EF61
:100EC00007F02CC01CF02DC01DF0000E1F6E100E80
:100ED0001E6E000E206EEFEC08F0000E12EF08F010
:100EE000F2EC15F0520E2F6E2B0E2E6E000EE82E29
:100EF000FED72E2EFCD72F2EFAD700D02CC01CF0F8
:100F00002DC01DF0000E1F6E080E1E6E010E206E0D
:100F1000EFEC08F02BC00EF088EC0FF02BC010F0B7
:100F20002AC011F02AEC0DF02CC01CF02DC01DF0D1
:100F3000000E1F6E100E1E6E000E206EEFEC08F0FD
:100F40002A50D96EDA6A060ED926DE52030EDE5C0E
:100F5000D8B0ADEF07F0AFEF07F0B2EF07F0080E33
:100F600012EF08F02A50D96EDA6A020ED926010E65
:100F7000DB5009E1310EDE5CD8A0C1EF07F0C3EF12
:100F800007F0C6EF07F0010E12EF08F02A50D96EF5
:100F9000DA6A010EDB5009E13D0EDE5CD8A0D3EF2A
:100FA00007F0D5EF07F0E9EF07F02A50D96EDA6ABB
:100FB000020ED926010EDB5007E11E0EDE5CD8B012
:100FC000E4EF07F0E6EF07F0E9EF07F0050E12EFA8
:100FD00008F02A50D96EDA6A040ED926010EDB50C9
:100FE00007E1070EDE5CD8B0F8EF07F0FAEF07F084
:100FF000FDEF07F0030E12EF08F02A50D96EDA6AFF
:10100000020ED926010EDB5009E1230EDE5CD8A0CA
:101010000CEF08F00EEF08F011EF08F0070E12EFDA
:1010200008F0040E1200B0EC14F0ADEC15F0E8EC92
:1010300015F0D6EC15F0000E046E630E036E69EC2D
:1010400012F0000E0001A76F010EA86F010EA96F2C
:10105000000EAB6F630EAA6FAA0EAC6F0F0EAD6FD2
:10106000A60EAE6F0F0EAF6FA70E106E80EC0CF0D9
:10107000000E00019E6F010E9F6F010EA06F000E0B
:10108000A26F630EA16F250EA36F0F0EA46F210E2A
:10109000A56F0F0EA66F9E0E106E80EC0CF0A70EC3
:1010A000276E9E0E286EFCEC10F04C6E290E416EE1
:1010B000960E406E7F0EE82EFED7402EFCD7412EB6
:1010C000FAD70000A70E276E9E0E286E99EC10F03E
:1010D0004B6E7AEC13F04BEC15F0F2EC15F0520E6F
:1010E000416E2B0E406E000EE82EFED7402EFCD730
:1010F000412EFAD700D08EB480EF08F082EF08F0CE
:101100007BEF08F0000E0001896F000E886F000170
:101110008C51D8B48EEF08F090EF08F0D6EF08F0BD
:10112000A70E156E9E0E166EE7EC12F0960E0E6E62
:1011300088EC0FF0960E106E8E0E116E2AEC0DF0EC
:101140008E0E2A6E960E2B6EA70E2C6E9E0E2D6E98
:1011500001EC07F000018D6F8D5115EC12F00001CC
:101160008B51020DF350600FD96EDA6A8DC0DFFF2C
:101170008B51020DF350610FD96EDA6A88C0DFFF20
:101180008B2BA70E2D6E9E0E2E6E8DC02FF029EC90
:101190000BF0F2EC15F0000E0001896F000E886F65
:1011A000000E8C6F5BEC15F0F28E7C9E00018A5174
:1011B000D8B4DDEF08F0DFEF08F0E5EF08F0A70E98
:1011C000326E9E0E336EC1EC11F0A70E156E9E0EA0
:1011D000166E11EC10F087EF08F023EF00F01C50B2
:1011E000D96EDA6ADF50D8A4F8EF08F0FAEF08F009
:1011F00005EF09F01D50D96EDA6ADF50D8B403EF5D
:1012000009F005EF09F00BEF09F01CC015F01DC047
:1012100016F01CEC13F0000E0001896F000E886FB1
:101220001C50D96EDA6A010ED92620C0DFFF1D508E
:10123000D96EDA6A010ED92620C0DFFF1C50D96EA4
:10124000DA6ADF50286E2004D8A429EF09F02BEFCA
:1012500009F02FEF09F0120E296E31EF09F00A0E96
:10126000296E2950285CD8B038EF09F03AEF09F020
:101270006FEF09F028C024F0256A5BEF09F01C50DD
:10128000D96EDA6A24C0DFFF1D50D96EDA6A24C035
:10129000DFFF1CC010F080EC0CF01DC010F080ECE3
:1012A0000CF0680E216EE40EE82EFED7212EFCD73E
:1012B00000D0244A252A2950216E226A2450215C1C
:1012C0002250800A236E2550800A2358D8B06BEF35
:1012D00009F06DEF09F03FEF09F0A3EF09F028C026
:1012E00026F0276A91EF09F01C50D96EDA6A26C001
:1012F000DFFF1D50D96EDA6A26C0DFFF1CC010F078
:1013000080EC0CF01DC010F080EC0CF0680E216E2B
:10131000E40EE82EFED7212EFCD700D02606D8A05A
:1013200027062950216E226A2150265C2750800A08
:10133000236E2250800A2358D8B0A1EF09F0A3EF02
:1013400009F074EF09F01E500001885D8951800A90
:10135000216E1F50800A2158D8A0B1EF09F0B3EFD9
:1013600009F0A3EF09F01CC015F01DC016F01CEC2D
:1013700013F012001C50D96EDA6ADF50D8A4C3EF04
:1013800009F0C5EF09F0D0EF09F01D50D96EDA6A07
:10139000DF50D8B4CEEF09F0D0EF09F0D6EF09F066
:1013A0001CC015F01DC016F01CEC13F0000E00015F
:1013B000896F000E886F1C50D96EDA6A010ED9262B
:1013C000010EDF6E1D50D96EDA6A010ED926010EAC
:1013D000DF6E1C50D96EDA6ADF50276E120E286E4F
:1013E000120E2760F6EF09F0F8EF09F02DEF0AF082
:1013F00027C023F0246A19EF0AF01C50D96EDA6A6C
:1014000023C0DFFF1D50D96EDA6A23C0DFFF1CC086
:1014100010F080EC0CF01DC010F080EC0CF0680EA9
:10142000206EE40EE82EFED7202EFCD700D0234AF3
:10143000242A2850206E216A2350205C2150800AE3
:10144000226E2450800A2258D8B029EF0AF02BEFE0
:101450000AF0FDEF09F061EF0AF027C025F0266AD7
:101460004FEF0AF01C50D96EDA6A25C0DFFF1D501D
:10147000D96EDA6A25C0DFFF1CC010F080EC0CF0DA
:101480001DC010F080EC0CF0680E206EE40EE82E0B
:10149000FED7202EFCD700D02506D8A0260628503F
:1014A000206E216A2050255C2650800A226E215031
:1014B000800A2258D8B05FEF0AF061EF0AF032EFED
:1014C0000AF01E500001885D8951800A206E1F506D
:1014D000800A2058D8A06FEF0AF071EF0AF061EF90
:1014E0000AF01CC015F01DC016F01CEC13F0120021
:1014F0001C50D96EDA6ADF50D8A481EF0AF083EF6E
:101500000AF08EEF0AF01D50D96EDA6ADF50D8B4B7
:101510008CEF0AF08EEF0AF094EF0AF01CC015F081
:101520001DC016F01CEC13F01C50D96EDA6A010EC7
:10153000D926DF6A1D50D96EDA6A010ED926010E4E
:10154000DF6E1EC003F01FC004F0000E066E0A0E10
:10155000056E28EC15F003C009F004C00AF0000E77
:101560000C6E090E0B6E5FEC11F0FF0E0924226E5B
:10157000FF0E0A20236E000E256E000E246EE1EF92
:101580000AF01C50D96EDA6A24C0DFFF1D50D96EF4
:10159000DA6A24C0DFFF1CC010F080EC0CF01DC024
:1015A00010F080EC0CF0020E216E380E206EAD0EA5
:1015B000E82EFED7202EFCD7212EFAD70000244A91
:1015C000252A2250245C2550800A206E2350800A50
:1015D0002058D8A0EEEF0AF0F0EF0AF0C1EF0AF0C1
:1015E000220E216E480E206E620EE82EFED7202EAF
:1015F000FCD7212EFAD700D022C026F023C027F036
:1016000027BE07EF0BF005EF0BF009EF0BF028EF0B
:101610000BF01C50D96EDA6A26C0DFFF1D50D96E60
:10162000DA6A26C0DFFF1CC010F080EC0CF01DC091
:1016300010F080EC0CF0680E206EE40EE82EFED761
:10164000202EFCD700D02606D8A0270600EF0BF0EE
:10165000120093EF0BF02DC027F02EC028F0B7EC4E
:1016600015F0D4EF0BF02DC027F02EC028F0C0EC01
:1016700015F0D4EF0BF02DC02BF02EC02CF0C9ECE0
:1016800015F0D4EF0BF02DC028F02EC029F002EC9D
:1016900015F0D4EF0BF02DC028F02EC029F015EC7A
:1016A00015F0D4EF0BF02DC028F02EC029F08FECF0
:1016B00015F0D4EF0BF02DC028F02EC029F099ECD6
:1016C00015F0D4EF0BF02DC02BF02EC02CF085ECD4
:1016D00015F0D4EF0BF02DC02BF02EC02CF0A3ECA6
:1016E00015F0D4EF0BF02DC02BF02EC02CF07EECBB
:1016F00014F0D4EF0BF02DC02BF02EC02CF097EC93
:1017000014F0D4EF0BF02DC028F02EC029F071ECAE
:1017100015F0D4EF0BF02DC028F02EC029F07BEC93
:1017200015F0D4EF0BF02F50306E316A3150000AB3
:10173000D8B49DEF0BF0D4EF0BF03050000AD8B4C2
:101740002BEF0BF0010AD8B433EF0BF0030AD8B437
:101750003BEF0BF0010AD8B443EF0BF0070AD8B403
:101760004BEF0BF0010AD8B453EF0BF0030AD8B4D7
:101770005BEF0BF0010AD8B463EF0BF00F0AD8B49B
:101780006BEF0BF0010AD8B473EF0BF0030AD8B477
:101790007BEF0BF0010AD8B483EF0BF0070AD8B443
:1017A0008BEF0BF0D4EF0BF012001C50D96EDA6AFD
:1017B000DF50D8A4DEEF0BF0E0EF0BF0EBEF0BF017
:1017C0001D50D96EDA6ADF50D8B4E9EF0BF0EBEFB9
:1017D0000BF0F1EF0BF01CC015F01DC016F01CEC67
:1017E00013F01C50D96EDA6A010ED926010EDF6E95
:1017F0001D50D96EDA6A010ED926DF6A1EC003F0C9
:101800001FC004F0000E066E0A0E056E28EC15F0DF
:1018100003C009F004C00AF0000E0C6E090E0B6E36
:101820005FEC11F009C022F00AC023F0000E256E13
:10183000000E246E38EF0CF01C50D96EDA6A24C00A
:10184000DFFF1D50D96EDA6A24C0DFFF1CC010F024
:1018500080EC0CF01DC010F080EC0CF0680E206ED7
:10186000E40EE82EFED7202EFCD700D0244A252AED
:101870002250245C2550800A206E2350800A205874
:10188000D8A045EF0CF047EF0CF01CEF0CF0220E47
:10189000216E480E206E620EE82EFED7202EFCD759
:1018A000212EFAD700D022C026F023C027F027BE71
:1018B0005EEF0CF05CEF0CF060EF0CF07FEF0CF0E3
:1018C0001C50D96EDA6A26C0DFFF1D50D96EDA6A65
:1018D00026C0DFFF1CC010F080EC0CF01DC010F023
:1018E00080EC0CF0680E206EE40EE82EFED7202E61
:1018F000FCD700D02606D8A0270657EF0CF0120020
:101900001050D96EDA6A020ED926DF50D8B48BEFA8
:101910000CF08DEF0CF0BDEF0CF01050D96EDA6AC0
:10192000DF50116E1150036E046A1050D96EDA6ADE
:10193000030ED926DECF05F0DDCF06F028EC15F03A
:1019400003C009F004C00AF0000E0C6E640E0B6EAA
:10195000ADEC12F01050D96EDA6A030ED926DF50C2
:10196000126E0950125C136E1050D96EDA6A030EB3
:10197000D926DF50146EDEEF0CF0000E136E1050FF
:10198000D96EDA6ADF50116E1150036E046A10507E
:10199000D96EDA6A030ED926DECF05F0DDCF06F068
:1019A00028EC15F003C009F004C00AF0000E0C6E1C
:1019B000640E0B6EADEC12F00950146E1050D96E1F
:1019C000DA6A010ED926DF50D8B4E9EF0CF0EBEF5C
:1019D0000CF00BEF0DF01050D96EDA6A050ED92617
:1019E000DECF11F0DDCF12F011C0D9FF12C0DAFF47
:1019F00013C0DFFF1050D96EDA6A070ED926DECF8A
:101A000011F0DDCF12F011C0D9FF12C0DAFF14C0FF
:101A1000DFFF29EF0DF01050D96EDA6A050ED926D6
:101A2000DECF11F0DDCF12F011C0D9FF12C0DAFF06
:101A300014C0DFFF1050D96EDA6A070ED926DECF48
:101A400011F0DDCF12F011C0D9FF12C0DAFF13C0C0
:101A5000DFFF12001050D96EDA6A040ED926DECFED
:101A600012F0DDCF13F01050D96EDA6A020ED926CB
:101A7000DECF14F0DDCF15F01050D96EDA6ADECF6C
:101A800016F0DDCF17F014501624186E15501720DD
:101A9000196E125018241A6E135019201B6E000E66
:101AA0000C6E640E0B6E1AC009F01BC00AF0ADEC90
:101AB00012F009C01CF00AC01DF01050D96EDA6A8D
:101AC000DECF09F0DDCF0AF01CC00BF01DC00CF01A
:101AD000ADEC12F01150D96EDA6A09C0DEFF0AC00F
:101AE000DDFF000E0C6E640E0B6E1AC009F01BC0F9
:101AF0000AF0ADEC12F009C01CF00AC01DF0105045
:101B0000D96EDA6A020ED926DECF09F0DDCF0AF0EF
:101B10001CC00BF01DC00CF0ADEC12F01150D96ED2
:101B2000DA6A020ED92609C0DEFF0AC0DDFF000E08
:101B30000C6E640E0B6E1AC009F01BC00AF0ADECFF
:101B400012F009C01CF00AC01DF01050D96EDA6AFC
:101B5000040ED926DECF09F0DDCF0AF01CC00BF051
:101B60001DC00CF0ADEC12F01150D96EDA6A040E03
:101B7000D92609C0DEFF0AC0DDFF1050D96EDA6A2F
:101B8000060ED9261150E16EE26A060EE126DECF7E
:101B9000E6FFDDCFE5FF12001C50D96EDA6ADF5098
:101BA000D8A4D5EF0DF0D7EF0DF0E2EF0DF01D50FA
:101BB000D96EDA6ADF50D8B4E0EF0DF0E2EF0DF045
:101BC000E8EF0DF01CC015F01DC016F01CEC13F072
:101BD0001C50D96EDA6A010ED926010EDF6E1D5037
:101BE000D96EDA6A010ED926DF6A1EC021F0226A98
:101BF000000E246E000E236E1AEF0EF01C50D96EEC
:101C0000DA6A23C0DFFF1D50D96EDA6A23C0DFFF16
:101C10001CC010F080EC0CF01DC010F080EC0CF03B
:101C2000FA0E1F6E580EE82EFED71F2EFCD700D0DE
:101C3000234A242A2150235C2450800A1F6E2250FC
:101C4000800A1F58D8A027EF0EF029EF0EF0FEEF04
:101C50000DF0150E206E4B0E1F6EBE0EE82EFED739
:101C60001F2EFCD7202EFAD700D021C025F022C08D
:101C700026F026BE40EF0EF03EEF0EF042EF0EF0E3
:101C800061EF0EF01C50D96EDA6A25C0DFFF1D50DF
:101C9000D96EDA6A25C0DFFF1CC010F080EC0CF0B2
:101CA0001DC010F080EC0CF0680E1F6EE40EE82EE4
:101CB000FED71F2EFCD700D02506D8A0260639EF68
:101CC0000EF012001C50D96EDA6ADF50D8A46BEF08
:101CD0000EF06DEF0EF078EF0EF01D50D96EDA6A4F
:101CE000DF50D8B476EF0EF078EF0EF07EEF0EF006
:101CF0001CC015F01DC016F01CEC13F01C50D96E62
:101D0000DA6A010ED926DF6A1D50D96EDA6A010E31
:101D1000D926010EDF6E1EC021F0226A000E246E4D
:101D2000000E236EB0EF0EF01C50D96EDA6A23C09D
:101D3000DFFF1D50D96EDA6A23C0DFFF1CC010F030
:101D400080EC0CF01DC010F080EC0CF0FA0E1F6E51
:101D5000580EE82EFED71F2EFCD700D0234A242A87
:101D60002150235C2450800A1F6E2250800A1F5885
:101D7000D8A0BDEF0EF0BFEF0EF094EF0EF0170EEF
:101D8000206EBB0E1F6E1D0EE82EFED71F2EFCD739
:101D9000202EFAD7000021C025F022C026F026BE52
:101DA000D6EF0EF0D4EF0EF0D8EF0EF0F7EF0EF006
:101DB0001C50D96EDA6A25C0DFFF1D50D96EDA6A71
:101DC00025C0DFFF1CC010F080EC0CF01DC010F02F
:101DD00080EC0CF0680E1F6EE40EE82EFED71F2E6E
:101DE000FCD700D02506D8A02606CFEF0EF01200B3
:101DF0001C50D96EDA6ADF50D8A401EF0FF003EF60
:101E00000FF00EEF0FF01D50D96EDA6ADF50D8B424
:101E10000CEF0FF00EEF0FF014EF0FF01CC015F0E9
:101E20001DC016F01CEC13F01F04D8A41AEF0FF01D
:101E30001CEF0FF02AEF0FF01C50D96EDA6A010E7A
:101E4000D926DF6A1D50D96EDA6A010ED926DF6AFB
:101E500038EF0FF01C50D96EDA6A010ED926010E48
:101E6000DF6E1D50D96EDA6A010ED926010EDF6EC3
:101E7000000E276E000E266E1C50D96EDA6A26C040
:101E8000DFFF1D50D96EDA6A26C0DFFF1CC010F0DC
:101E900080EC0CF01DC010F080EC0CF0680E206E91
:101EA000E40EE82EFED7202EFCD700D0264A272AA3
:101EB00027BE64EF0FF0275009E1150E265CD8A06D
:101EC00064EF0FF066EF0FF03CEF0FF088C025F0E5
:101ED0001E50206E216A25500001885D226E000E82
:101EE0008959236E2050225C2350800A246E215091
:101EF000800A2458D8A07FEF0FF081EF0FF068EF31
:101F00000FF01CC015F01DC016F01CEC13F01200F1
:101F1000F2EC15F0F2EC13F00E50D96EDA6A060E00
:101F2000D92607C0DEFF08C0DDFF090E106E1E0EA9
:101F30000F6EE40EE82EFED70F2EFCD7102EFAD728
:101F400000D0F7EC15F07F80090E106E1E0E0F6E9C
:101F5000E40EE82EFED70F2EFCD7102EFAD700D0B5
:101F6000A2EC13F00E50D96EDA6A07C0DEFF08C08B
:101F7000DDFF090E106E1E0E0F6EE40EE82EFED76A
:101F80000F2EFCD7102EFAD700D07F907D8E090E31
:101F9000106E1E0E0F6EE40EE82EFED70F2EFCD72D
:101FA000102EFAD700D0CAEC13F00E50D96EDA6AB0
:101FB000020ED92607C0DEFF08C0DDFF090E106E35
:101FC0001E0E0F6EE40EE82EFED70F2EFCD7102E3D
:101FD000FAD700D07D9E7986090E106E1E0E0F6E08
:101FE000E40EE82EFED70F2EFCD7102EFAD700D025
:101FF0001AEC14F00E50D96EDA6A040ED92607C016
:10200000DEFF08C0DDFF090E106E1E0E0F6EE40E1F
:10201000E82EFED70F2EFCD7102EFAD700D07996D7
:1020200012001550D96EDA6A010ED926010EDF6E44
:102030001650D96EDA6A010ED926010EDF6E1550E0
:10204000D96EDA6ADF501E6E120E1F6E120E1E60FF
:102050002CEF10F02EEF10F064EF10F01EC01AF00D
:102060001B6A50EF10F01550D96EDA6A1A500F0F34
:10207000DF6E1650D96EDA6A1AC0DFFF15C010F095
:1020800080EC0CF016C010F080EC0CF0680E176EAF
:10209000E40EE82EFED7172EFCD700D01A4A1B2AD2
:1020A0001F50176E186A1A50175C1850800A196E64
:1020B0001B50800A1958D8B060EF10F062EF10F092
:1020C00033EF10F098EF10F01EC01CF01D6A86EF81
:1020D00010F01550D96EDA6A1CC0DFFF1650D96EA9
:1020E000DA6A1CC0DFFF15C010F080EC0CF016C0DF
:1020F00010F080EC0CF0680E176EE40EE82EFED7A0
:10210000172EFCD700D01C06D8A01D061F50176E36
:10211000186A17501C5C1D50800A196E1850800AEE
:102120001958D8B096EF10F098EF10F069EF10F052
:1021300012008EB49EEF10F0A0EF10F099EF10F0A7
:102140004BC02BF0ECEF10F0520E2A6E2B0E296EC6
:10215000000EE82EFED7292EFCD72A2EFAD700D063
:1021600027C01CF028C01DF02BC01EF0CCEC0DF0D9
:102170008EA4BDEF10F0BFEF10F0C6EF10F08EB6DA
:10218000C4EF10F0C6EF10F0B8EF10F0070E2A6E93
:102190007F0E296E500EE82EFED7292EFCD72A2E50
:1021A000FAD78EB4D6EF10F0D8EF10F0E1EF10F0C0
:1021B0008EB6DDEF10F0DFEF10F0E1EF10F0ECEF96
:1021C00010F08EB4E6EF10F0E8EF10F0EBEF10F047
:1021D0002B2AECEF10F02B068EB4F1EF10F0F3EF9A
:1021E00010F0A4EF10F08EB6F8EF10F0FAEF10F048
:1021F000A4EF10F02B5012008EB401EF11F003EF9A
:1022000011F0FCEF10F04CC02BF04FEF11F0520E1C
:102210002A6E2B0E296E000EE82EFED7292EFCD733
:102220002A2EFAD700D027C01CF028C01DF02BC0E2
:102230001EF062EC0EF08EA420EF11F022EF11F0F0
:1022400029EF11F08EB627EF11F029EF11F01BEFF7
:1022500011F0070E2A6E7F0E296E500EE82EFED763
:10226000292EFCD72A2EFAD78EB439EF11F03BEF86
:1022700011F044EF11F08EB640EF11F042EF11F083
:1022800044EF11F04FEF11F08EB449EF11F04BEF26
:1022900011F04EEF11F02B064FEF11F02B2A8EB4F8
:1022A00054EF11F056EF11F007EF11F08EB65BEF1F
:1022B00011F05DEF11F007EF11F02B501200000E3E
:1022C0000E6E0CBE68EF11F066EF11F06EEF11F0BC
:1022D0000B6C0C1ED8B00C2A010E0E6E0ABE75EFE8
:1022E00011F073EF11F07BEF11F0096C0A1ED8B0FA
:1022F0000A2A010E0E1A000E106E000E0F6E0B5001
:102300000C10D8B486EF11F088EF11F0B0EF11F097
:10231000010E0D6E90EF11F0D8900B360C360D2A91
:102320000CAE95EF11F097EF11F08CEF11F0D89003
:102330000F3610360B50095C0C500A58D8A0A3EF8A
:1023400011F0A5EF11F0AAEF11F00B50095E0C503F
:102350000A5A0F80D8900C320B320D2E97EF11F0E5
:102360000E50D8B4B6EF11F0B8EF11F0BCEF11F089
:102370000F6C101ED8B0102A0FC009F010C00AF060
:10238000120020EE42F010EE35F0080EDBCFE3FF36
:10239000E806FCE2FF0E00018B253E6E3F6AFF0E51
:1023A0003F223FBED8EF11F0D6EF11F0DAEF11F077
:1023B00004EF12F032C02DF033C02EF03E50020D6B
:1023C000F350600FD96EDA6ADF50346E3450350F37
:1023D000D96EDA6ADF502F6E29EC0BF032C01CF098
:1023E00033C01DF03E50020DF350610FD96EDA6A12
:1023F000DF50346E34501E6E1F6ABAEC09F03E0690
:10240000D8A03F06D1EF11F032C015F033C016F05E
:102410001CEC13F0000E00018B6F8EB412EF12F063
:1024200014EF12F00DEF12F01200066E000E0A6E9D
:10243000000E096E000E086E000E076E3AEF12F0E5
:1024400080860D0E046E2D0E036ED80EE82EFED77C
:10245000032EFCD7042EFAD780960D0E046E2D0E97
:10246000036ED80EE82EFED7032EFCD7042EFAD723
:10247000074A082A0650036E046A0350075C085096
:10248000800A056E0450800A0558D8A04AEF12F061
:102490004CEF12F020EF12F0290E046E960E036E30
:1024A0007F0EE82EFED7032EFCD7042EFAD70000AD
:1024B000094A0A2A0ABE66EF12F00A5009E1020E22
:1024C000095CD8A066EF12F068EF12F01AEF12F074
:1024D000120085948598839E879C050E0E01746F6B
:1024E000060E766F070E696F080E886FBD508F0B52
:1024F0004009BD6EE00EBE16BF50F00B0109BF6E65
:1025000003C0BCFFBD8E000EAA6E000EA66E000EAC
:102510000F01256F000E216FFC0EAD16F30EAD16E8
:10252000CF0EAD163F0EAD16AB88AB50F00B0C09BD
:10253000AB6EAB8EA788A750F00B0C09A76EA78EC9
:1025400026892651F00B0C09266F268F22892251ED
:10255000F00B0C09226F228F1200000E0E6E000E7F
:102560000D6E0B500C10D8B4B8EF12F0BAEF12F099
:10257000E2EF12F0010E0F6EC2EF12F0D8900B36A0
:102580000C360F2A0CAEC7EF12F0C9EF12F0BEEFF7
:1025900012F0D8900D360E360B50095C0C500A58CC
:1025A000D8A0D5EF12F0D7EF12F0DCEF12F00B50FD
:1025B000095E0C500A5A0D80D8900C320B320F2E47
:1025C000C9EF12F00DC009F00EC00AF0120015504C
:1025D000D96EDA6ADF50176E1750186E196A18C074
:1025E0001AF019C01BF01BBEFAEF12F0F8EF12F050
:1025F000FCEF12F01BEF13F01550D96EDA6A1AC017
:10260000DFFF1650D96EDA6A1AC0DFFF15C010F06E
:1026100080EC0CF016C010F080EC0CF0150E176E6C
:10262000C60EE82EFED7172EFCD700D01A06D8A06B
:102630001B06F3EF12F012001550D96EDA6ADF5064
:10264000176E1750186E196A18C01AF019C01BF0CF
:102650001BBE2FEF13F02DEF13F031EF13F050EFFF
:1026600013F01550D96EDA6A1AC0DFFF1650D96E12
:10267000DA6A1AC0DFFF15C010F080EC0CF016C04B
:1026800010F080EC0CF0680E176EE40EE82EFED70A
:10269000172EFCD700D01A06D8A01B0628EF13F07F
:1026A000120027C01CF028C01DF04CC01EF062ECC8
:1026B0000EF0090E2A6E1E0E296EE40EE82EFED7CD
:1026C000292EFCD72A2EFAD700D027C01CF028C00C
:1026D0001DF04CC01EF062EC0EF0290E2A6E960E14
:1026E000296E7F0EE82EFED7292EFCD72A2EFAD788
:1026F00000001200080E0D01F06F0E012981F2900A
:102700001F919A91000E056E040E3BEC15F0010E20
:10271000056E050E3BEC15F0000E056E060E3BEC4B
:1027200015F0020E056E070E3BEC15F0030E056E5C
:102730000C0E3BEC15F00E01298BF28C5BEC15F0C6
:10274000F28E120001EC16F0520EDCEC15F0B60E13
:10275000DCEC15F0EDEC15F0530EDCEC15F0010E91
:1027600042EC14F0096E09500C6E0D6A000E42EC3A
:1027700014F0096E09500B6E0A6A0C500A100C6EA8
:102780000D500B100D6EFCEC15F00CC007F00DC0D9
:1027900008F0120001EC16F0520EDCEC15F0B80E49
:1027A000DCEC15F0EDEC15F0530EDCEC15F0010E41
:1027B00042EC14F0096E09500C6E0D6A000E42ECEA
:1027C00014F0096E09500B6E0A6A0C500A100C6E58
:1027D0000D500B100D6EFCEC15F00CC007F00DC089
:1027E00008F0120001EC16F0520EDCEC15F0B40EFD
:1027F000DCEC15F0EDEC15F0530EDCEC15F0010EF1
:1028000042EC14F0096E09500C6E0D6A000E42EC99
:1028100014F0096E09500B6E0A6A0C500A100C6E07
:102820000D500B100D6EFCEC15F00CC007F00DC038
:1028300008F0120001EC16F0520EDCEC15F0BA0EA6
:10284000DCEC15F0EDEC15F0530EDCEC15F0010EA0
:1028500042EC14F0096E09500C6E0D6A000E42EC49
:1028600014F0096E09500B6E0A6A0C500A100C6EB7
:102870000D500B100D6EFCEC15F00CC007F00DC0E8
:1028800008F01200056EDAEC14F00E01DA87DAECCB
:1028900014F0D5CE06F0DAEC14F00550D8B453EFAE
:1028A00014F057EF14F0046A042A58EF14F0046A85
:1028B000043A04460E01DA510418DF0B0418DA6FEB
:1028C000DA8906501200A00EF66E2B0EF76E000E7F
:1028D000F86E00EE42F010EE0CF00900F5CFEEFFBE
:1028E000E550E150FAE100EE60F02D0EEE6AE806E8
:1028F000FDE14E904E92000113EF08F02BC01CF04A
:102900002CC01DF04CC01EF062EC0EF02BC01CF071
:102910002CC01DF0100E1E6E000E1F6EF8EC0EF097
:102920002BC027F02CC028F051EC13F012002BC064
:102930001CF02CC01DF04BC01EF0CCEC0DF02BC0D9
:102940001CF02CC01DF0100E1E6E000E1F6EF8EC59
:102950000EF02BC027F02CC028F051EC13F0120021
:10296000C5EC14F0F60E056E010E3BEC15F0130EDF
:10297000056E000E3BEC15F03F0E076E550EE82E6F
:10298000FED7072EFCD7000012000E01D951F00B24
:102990000809D96FD98B9F0ED66F848A848CA79B28
:1029A000A79D1D0E1D6F1E0E1C6F1C0E6F6F1B0E44
:1029B000706F12000E01D8B5E0EF14F0E2EF14F0E2
:1029C000DAEF14F0DACE03F01F0E0316D8A4EBEF03
:1029D00014F0EDEF14F0DAEF14F012000E01D8B598
:1029E000F4EF14F0F6EF14F0EEEF14F0DACE01F09D
:1029F0001F0E0116D8A4FFEF14F001EF15F0EEEF53
:102A000014F0120028C01CF029C01DF0100E1E6E1C
:102A1000010E1F6EF8EC0EF028C01CF029C01DF04E
:102A20004BC01EF0CCEC0DF0120028C01CF029C0E9
:102A30001DF0100E1E6E010E1F6EF8EC0EF028C079
:102A40001CF029C01DF04CC01EF062EC0EF012000C
:102A500003500502F3CF07F0F4CF08F0035006024D
:102A6000F350082604500502F350082607C003F06F
:102A700008C004F01200066E01EC16F0520EDCECF9
:102A800015F006508009DCEC15F00550DCEC15F073
:102A9000FCEC15F01200D6501F0B4009D66ED688FC
:102AA000D650F00B0509D66ED588000ED46E000EF8
:102AB000D36ED58E120001EC16F0520EDCEC15F040
:102AC000E60EDCEC15F0FCEC15F012000BEC16F049
:102AD000520EE2EC15F0E60EE2EC15F006EC16F004
:102AE000120028C01CF029C01DF04BC01EF01F6A48
:102AF000D5EC0BF0120028C01CF029C01DF04CC012
:102B00001EF01F6A78EC0AF01200010E00018A6FB5
:102B10002BC027F02CC028F051EC13F0120028C075
:102B20001CF029C01DF04BC01EF01F6AD5EC0BF045
:102B3000120028C01CF029C01DF04CC01EF01F6AF6
:102B400078EC0AF01200010E00018A6F2BC027F00A
:102B50002CC028F051EC13F012008790859E8196CE
:102B60008496889284987F907D9E7996120027C0E3
:102B70001CF028C01DF04BC01EF0CCEC0DF0120074
:102B800027C01CF028C01DF04CC01EF062EC0EF0F7
:102B900012002BC027F02CC028F051EC13F01200CB
:102BA000010002090A0B0CFFFF1F1E1086840E0194
:102BB000B4958686B4971200046EDAEC14F004C063
:102BC000D5FE1200026EEEEC14F002C0D5FE12002B
:102BD000849E7C9E889680961200DAEC14F00E019A
:102BE000DA8312007C867F807D8E798612007C9647
:102BF0007F907D9E79961200DAEC14F00E01DA8552
:102C00001200DAEC14F00E01DA811200EEEC14F08E
:102C10000E01DA851200EEEC14F00E01DA811200DA
:020000040030CA
:02000000AAFF55
:020004009FFF5C
:00000001FF
