:040000009BEF00F082
:100008004E820E0133A10BEF00F00DEF00F08FEFE1
:1000180000F03F50D8A413EF00F015EF00F08BEF7D
:1000280000F0AAEC09F005C046F006C047F0EAEC7B
:100038000AF07F80090E0D6E1E0E0C6EE40EE82E7F
:10004800FED70C2EFCD70D2EFAD700D05AEC09F0AB
:1000580005C040F006C041F0090E0D6E1E0E0C6E74
:10006800E40EE82EFED70C2EFCD70D2EFAD700D0C2
:100078007F907D8E090E0D6E1E0E0C6EE40EE82E1E
:10008800FED70C2EFCD70D2EFAD700D082EC09F043
:1000980005C042F006C043F0090E0D6E1E0E0C6E30
:1000A800E40EE82EFED70C2EFCD70D2EFAD700D082
:1000B8007D9E7986090E0D6E1E0E0C6EE40EE82EDE
:1000C800FED70C2EFCD70D2EFAD700D0D2EC09F0B3
:1000D80005C044F006C045F0090E0D6E1E0E0C6EEC
:1000E800E40EE82EFED70C2EFCD70D2EFAD700D042
:1000F8007996520E0D6E2B0E0C6E000EE82EFED762
:100108000C2EFCD70D2EFAD700D0010E3F6EABECAB
:100118000AF00E01339133AB94EF00F096EF00F044
:1001280099EF00F0339B354A362A4E92110095EF2D
:020138000AF0CB
:100E000000001BEC0AF0B6EC0AF0849E7C9E32ECEB
:100E100009F087EC0AF0D6EC0AF0520E246E2B0E85
:100E2000236E000EE82EFED7232EFCD7242EFAD7F1
:100E300000D07C8E3F50D8B420EF07F022EF07F0AF
:100E40001AEF07F0400E156E480E166EF4EC07F020
:100E5000480E0E6E88EC08F00EC029F00FC02AF084
:100E600029042A10D8A437EF07F039EF07F05EEF16
:100E700007F08896000E256E80860D0E246E2D0ECE
:100E8000236ED80EE82EFED7232EFCD7242EFAD7B9
:100E90008096090E246E1E0E236EE40EE82EFED7F9
:100EA000232EFCD7242EFAD700D0252A2550D8B4DB
:100EB0005CEF07F05EEF07F03CEF07F0020E291839
:100EC0002A10D8A466EF07F068EF07F08DEF07F05F
:100ED0008896000E266E80860D0E246E2D0E236ED3
:100EE000D80EE82EFED7232EFCD7242EFAD78096D4
:100EF000090E246E1E0E236EE40EE82EFED7232E5E
:100F0000FCD7242EFAD700D0262A010E26648BEFB8
:100F100007F08DEF07F06BEF07F0030E29182A108A
:100F2000D8A495EF07F097EF07F0BCEF07F088968D
:100F3000000E276E80860D0E246E2D0E236ED80EA9
:100F4000E82EFED7232EFCD7242EFAD78096090E42
:100F5000246E1E0E236EE40EE82EFED7232EFCD741
:100F6000242EFAD700D0272A020E2764BAEF07F002
:100F7000BCEF07F09AEF07F0040E29182A10D8A446
:100F8000C4EF07F0C6EF07F0EBEF07F08896000E0E
:100F9000286E80860D0E246E2D0E236ED80EE82E40
:100FA000FED7232EFCD7242EFAD78096090E246E66
:100FB0001E0E236EE40EE82EFED7232EFCD7242E21
:100FC000FAD700D0282A030E2864E9EF07F0EBEFE8
:100FD00007F0C9EF07F0000E3F6ED6EC0AF08096DE
:100FE0001AEF07F09BEF00F01550D96EDA6A040E85
:100FF000D926DECF17F0DDCF18F01550D96EDA6A9A
:10100000020ED926DECF19F0DDCF1AF01550D96EB9
:10101000DA6ADECF1BF0DDCF1CF019501B241D6EE9
:101020001A501C201E6E17501D241F6E18501E20B3
:10103000206E000E116E640E106E1FC00EF020C0E8
:101040000FF0F8EC08F00EC021F00FC022F01550A0
:10105000D96EDA6ADECF0EF0DDCF0FF021C010F0CE
:1010600022C011F0F8EC08F01650D96EDA6A0EC002
:10107000DEFF0FC0DDFF000E116E640E106E1FC08C
:101080000EF020C00FF0F8EC08F00EC021F00FC0F9
:1010900022F01550D96EDA6A020ED926DECF0EF094
:1010A000DDCF0FF021C010F022C011F0F8EC08F0F5
:1010B0001650D96EDA6A020ED9260EC0DEFF0FC0B6
:1010C000DDFF000E116E640E106E1FC00EF020C00A
:1010D0000FF0F8EC08F00EC021F00FC022F0155010
:1010E000D96EDA6A040ED926DECF0EF0DDCF0FF00E
:1010F00021C010F022C011F0F8EC08F01650D96EA3
:10110000DA6A040ED9260EC0DEFF0FC0DDFF120022
:101110000E50D96EDA6A040ED926010EDB5009E1B1
:10112000130EDE5CD8A097EF08F099EF08F09FEF60
:1011300008F0000E0F6E020E0E6EF7EF08F00E5064
:10114000D96EDA6A020ED926010EDB5009E1290EAA
:10115000DE5CD8A0AEEF08F0B0EF08F0B6EF08F014
:10116000000E0F6E010E0E6EF7EF08F00E50D96EE6
:10117000DA6A010EDB5009E1380EDE5CD8A0C3EF5D
:1011800008F0C5EF08F0F3EF08F00E50D96EDA6AF8
:10119000020ED926010EDB5009E11F0EDE5CD8A03D
:1011A000D4EF08F0D6EF08F0F3EF08F00E50D96E48
:1011B000DA6A040ED926010EDB5009E10D0EDE5C61
:1011C000D8A0E5EF08F0E7EF08F0EDEF08F0000E2B
:1011D0000F6E040E0E6EF7EF08F0000E0F6E030E8A
:1011E0000E6EF7EF08F0000E0F6E000E0E6E12007E
:1011F000000E136E000E126E10501110D8B403EFD3
:1012000009F005EF09F02DEF09F0010E146E0DEF56
:1012100009F0D89010361136142A11AE12EF09F0E9
:1012200014EF09F009EF09F0D89012361336105078
:101230000E5C11500F58D8A020EF09F022EF09F0F2
:1012400027EF09F010500E5E11500F5A1280D890FF
:1012500011321032142E14EF09F012C00EF013C028
:101260000FF01200080E0D01F06F0E012981F290AF
:101270001F919A91000E106E040E77EC0AF0010E89
:10128000106E050E77EC0AF0C00E106E060E77ECAD
:101290000AF0010E106E070E77EC0AF0070E106EC2
:1012A0000C0E77EC0AF00E01298BF28CA0EC0AF000
:1012B000F28E1200E0EC0AF0520EC6EC0AF0B60E06
:1012C000C6EC0AF0E5EC0AF0530EC6EC0AF0010E8B
:1012D000FAEC09F0076E07500A6E0B6A000EFAEC82
:1012E00009F0076E0750096E086A0A5008100A6E66
:1012F0000B5009100B6EDBEC0AF00AC005F00BC0B6
:1013000006F01200E0EC0AF0520EC6EC0AF0B80E3D
:10131000C6EC0AF0E5EC0AF0530EC6EC0AF0010E3A
:10132000FAEC09F0076E07500A6E0B6A000EFAEC31
:1013300009F0076E0750096E086A0A5008100A6E15
:101340000B5009100B6EDBEC0AF00AC005F00BC065
:1013500006F01200E0EC0AF0520EC6EC0AF0B40EF1
:10136000C6EC0AF0E5EC0AF0530EC6EC0AF0010EEA
:10137000FAEC09F0076E07500A6E0B6A000EFAECE1
:1013800009F0076E0750096E086A0A5008100A6EC5
:101390000B5009100B6EDBEC0AF00AC005F00BC015
:1013A00006F01200E0EC0AF0520EC6EC0AF0BA0E9B
:1013B000C6EC0AF0E5EC0AF0530EC6EC0AF0010E9A
:1013C000FAEC09F0076E07500A6E0B6A000EFAEC91
:1013D00009F0076E0750096E086A0A5008100A6E75
:1013E0000B5009100B6EDBEC0AF00AC005F00BC0C5
:1013F00006F01200036E63EC0AF00E01DA8763EC6C
:101400000AF0D5CE04F063EC0AF00350D8B40BEF29
:101410000AF00FEF0AF0026A022A10EF0AF0026ADD
:10142000023A02460E01DA510218DF0B0218DA6F97
:10143000DA89045012003AEC0AF0010E106E000E28
:1014400077EC0AF03F0E126E550EE82EFED7122EE4
:10145000FCD70000030E106E000E77EC0AF0F60EBB
:10146000106E010E77EC0AF0130E106E000E77EC82
:101470000AF012000E01D951F00B0809D96FD98B6F
:101480009F0ED66F848A848CA79BA79D1D0E1D6F0F
:101490001E0E1C6F1C0E6F6F1B0E706F12000E0164
:1014A000D8B555EF0AF057EF0AF04FEF0AF0DACE51
:1014B0000EF01F0E0E16D8A460EF0AF062EF0AF0CD
:1014C0004FEF0AF012000E01D8B569EF0AF06BEF8A
:1014D0000AF063EF0AF0DACE01F01F0E0116D8A46D
:1014E00074EF0AF076EF0AF063EF0AF01200116E63
:1014F000D1EC0AF0520EC0EC0AF011508009C0EC99
:101500000AF01050C0EC0AF0CCEC0AF01200D650F1
:101510001F0B4009D66ED688F00ED616D588000E61
:10152000D46EDC0ED36ED58E120000EE2BF0230E9F
:10153000EE6AE806FDE14E904E92000101EF07F0E1
:10154000D1EC0AF0520EC0EC0AF0E60EC0EC0AF044
:10155000CCEC0AF01200E0EC0AF0520EC6EC0AF0F5
:10156000E60EC6EC0AF0DBEC0AF012008790859ECE
:1015700081968496889284987F907D9E79961200B9
:101580000F6E4FEC0AF00FC0D5FE1200026E63EC36
:101590000AF002C0D5FE12004FEC0AF00E01DA8507
:1015A00012004FEC0AF00E01DA8112007C867F8077
:1015B0007D8E7986120063EC0AF00E01DA85120046
:1015C00063EC0AF00E01DA81120063EC0AF00E01FE
:0E15D000DA8312007C967F907D9E7996120041
:020000040030CA
:02000000AAFF55
:020004009FFF5C
:00000001FF
